{
  "address": "0x2E9D1087aA553a27dbdD2220A9F79Dc28F271464",
  "abi": [
    {
      "inputs": [],
      "name": "InvalidInitialization",
      "type": "error"
    },
    {
      "inputs": [],
      "name": "NotDeployer",
      "type": "error"
    },
    {
      "inputs": [],
      "name": "NotGovernance",
      "type": "error"
    },
    {
      "inputs": [],
      "name": "NotInitializing",
      "type": "error"
    },
    {
      "anonymous": false,
      "inputs": [
        {
          "indexed": false,
          "internalType": "address",
          "name": "controller",
          "type": "address"
        },
        {
          "indexed": false,
          "internalType": "uint256",
          "name": "ts",
          "type": "uint256"
        },
        {
          "indexed": false,
          "internalType": "uint256",
          "name": "block",
          "type": "uint256"
        }
      ],
      "name": "ContractInitialized",
      "type": "event"
    },
    {
      "anonymous": false,
      "inputs": [
        {
          "indexed": false,
          "internalType": "uint64",
          "name": "version",
          "type": "uint64"
        }
      ],
      "name": "Initialized",
      "type": "event"
    },
    {
      "anonymous": false,
      "inputs": [
        {
          "indexed": false,
          "internalType": "uint256",
          "name": "value",
          "type": "uint256"
        },
        {
          "indexed": false,
          "internalType": "address",
          "name": "oldLogic",
          "type": "address"
        }
      ],
      "name": "RevisionIncreased",
      "type": "event"
    },
    {
      "inputs": [],
      "name": "CONTROLLABLE_VERSION",
      "outputs": [
        {
          "internalType": "string",
          "name": "",
          "type": "string"
        }
      ],
      "stateMutability": "view",
      "type": "function"
    },
    {
      "inputs": [],
      "name": "VERSION",
      "outputs": [
        {
          "internalType": "string",
          "name": "",
          "type": "string"
        }
      ],
      "stateMutability": "view",
      "type": "function"
    },
    {
      "inputs": [
        {
          "internalType": "address",
          "name": "adr",
          "type": "address"
        },
        {
          "internalType": "bool",
          "name": "remove",
          "type": "bool"
        }
      ],
      "name": "changeDeployer",
      "outputs": [],
      "stateMutability": "nonpayable",
      "type": "function"
    },
    {
      "inputs": [],
      "name": "controller",
      "outputs": [
        {
          "internalType": "address",
          "name": "",
          "type": "address"
        }
      ],
      "stateMutability": "view",
      "type": "function"
    },
    {
      "inputs": [],
      "name": "created",
      "outputs": [
        {
          "internalType": "uint256",
          "name": "",
          "type": "uint256"
        }
      ],
      "stateMutability": "view",
      "type": "function"
    },
    {
      "inputs": [],
      "name": "createdBlock",
      "outputs": [
        {
          "internalType": "uint256",
          "name": "",
          "type": "uint256"
        }
      ],
      "stateMutability": "view",
      "type": "function"
    },
    {
      "inputs": [],
      "name": "governance",
      "outputs": [
        {
          "internalType": "address",
          "name": "",
          "type": "address"
        }
      ],
      "stateMutability": "view",
      "type": "function"
    },
    {
      "inputs": [
        {
          "internalType": "address",
          "name": "oldLogic",
          "type": "address"
        }
      ],
      "name": "increaseRevision",
      "outputs": [],
      "stateMutability": "nonpayable",
      "type": "function"
    },
    {
      "inputs": [
        {
          "internalType": "address",
          "name": "governance_",
          "type": "address"
        }
      ],
      "name": "init",
      "outputs": [],
      "stateMutability": "nonpayable",
      "type": "function"
    },
    {
      "inputs": [
        {
          "internalType": "address",
          "name": "value_",
          "type": "address"
        }
      ],
      "name": "isController",
      "outputs": [
        {
          "internalType": "bool",
          "name": "",
          "type": "bool"
        }
      ],
      "stateMutability": "view",
      "type": "function"
    },
    {
      "inputs": [
        {
          "internalType": "address",
          "name": "adr",
          "type": "address"
        }
      ],
      "name": "isDeployer",
      "outputs": [
        {
          "internalType": "bool",
          "name": "",
          "type": "bool"
        }
      ],
      "stateMutability": "view",
      "type": "function"
    },
    {
      "inputs": [
        {
          "internalType": "address",
          "name": "value_",
          "type": "address"
        }
      ],
      "name": "isGovernance",
      "outputs": [
        {
          "internalType": "bool",
          "name": "",
          "type": "bool"
        }
      ],
      "stateMutability": "view",
      "type": "function"
    },
    {
      "inputs": [],
      "name": "previousImplementation",
      "outputs": [
        {
          "internalType": "address",
          "name": "",
          "type": "address"
        }
      ],
      "stateMutability": "view",
      "type": "function"
    },
    {
      "inputs": [],
      "name": "revision",
      "outputs": [
        {
          "internalType": "uint256",
          "name": "",
          "type": "uint256"
        }
      ],
      "stateMutability": "view",
      "type": "function"
    },
    {
      "inputs": [
        {
          "internalType": "address[]",
          "name": "proxies",
          "type": "address[]"
        },
        {
          "internalType": "address",
          "name": "newLogic",
          "type": "address"
        }
      ],
      "name": "updateProxies",
      "outputs": [],
      "stateMutability": "nonpayable",
      "type": "function"
    }
  ],
  "transactionHash": "0xe100e632ba2bbc74e48367c4a5b90e7f4e2067d4d25acb314c21e53fd86f4e90",
  "args": [],
  "numDeployments": 1,
  "solcInputHash": "f25b95755413e96c8a180219e748c24d",
  "bytecode": "0x608060405234801561001057600080fd5b507ff0c57e16840df040f15088dc2f81fe391c3923bec73e23a9662efc9c229c6a00805468010000000000000000810460ff1615906001600160401b031660008115801561005b5750825b90506000826001600160401b031660011480156100775750303b155b905081158015610085575080155b156100a35760405163f92ee8a960e01b815260040160405180910390fd5b84546001600160401b031916600117855583156100d157845460ff60401b1916680100000000000000001785555b831561011757845460ff60401b19168555604051600181527fc7f505b2f371ae2175ee4913f4499e1f2633a7b5936321eed1cdaeb6115181d29060200160405180910390a15b5050505050610c4b8061012b6000396000f3fe608060405234801561001057600080fd5b50600436106100e55760003560e01c80637262bb2d11610097578063b429afeb11610066578063b429afeb146101df578063dee1f0e4146101f2578063f77c479114610205578063ffa1ad74146101a657600080fd5b80637262bb2d1461018b5780637cc963801461019e578063936725ec146101a65780639d0bcca0146101d757600080fd5b806319ab453c146100ea578063325a19f1146100ff5780634576dc521461011a5780634593144c1461012d5780634fac6ccd1461013557806350c358a4146101485780635aa6e6751461016b575b600080fd5b6100fd6100f8366004610a08565b61020d565b005b610107610312565b6040519081526020015b60405180910390f35b6100fd610128366004610a42565b61034b565b610107610359565b6100fd610143366004610a08565b610389565b61015b610156366004610a08565b6104c0565b6040519015158152602001610111565b6101736104d1565b6040516001600160a01b039091168152602001610111565b6100fd610199366004610b19565b6104db565b6101076104e5565b6101ca604051806040016040528060058152602001640312e302e360dc1b81525081565b6040516101119190610b57565b610173610515565b61015b6101ed366004610a08565b610545565b61015b610200366004610a08565b61056a565b6101736105ef565b600061021761061f565b805490915060ff600160401b820416159067ffffffffffffffff1660008115801561023f5750825b905060008267ffffffffffffffff16600114801561025c5750303b155b90508115801561026a575080155b156102885760405163f92ee8a960e01b815260040160405180910390fd5b845467ffffffffffffffff1916600117855583156102b257845460ff60401b1916600160401b1785555b6102bb30610648565b6102c48661065c565b831561030a57845460ff60401b19168555604051600181527fc7f505b2f371ae2175ee4913f4499e1f2633a7b5936321eed1cdaeb6115181d29060200160405180910390a15b505050505050565b600061034661034260017f6f55f470bdc9cb5f04223fd822021061668e4dccb43e8727b295106dc9769c8b610bbc565b5490565b905090565b6103558282610686565b5050565b600061034661034260017f812a673dfca07956350df10f8a654925f561d7a0da09bdbe79e653939a14d9f1610bbc565b3330146103dd5760405162461bcd60e51b815260206004820152601b60248201527f496e637265617365207265766973696f6e20666f7262696464656e000000000060448201526064015b60405180910390fd5b600061040d61034260017f22573091f17911fb166032a3d9e0554aa73d31b7b7ddea4a4dd2995650af84bd610bbc565b610418906001610bcf565b905061044c8161044960017f22573091f17911fb166032a3d9e0554aa73d31b7b7ddea4a4dd2995650af84bd610bbc565b55565b61047b8261044960017fbfaaa2fb63266ff27c2da975f5894955056f50419af651a81f6c5060581857e4610bbc565b604080518281526001600160a01b03841660208201527ff27e2ef832a4eb8ed8ec553b875eecd44764cda95b1c24170e281539e0a869c8910160405180910390a15050565b60006104cb82610723565b92915050565b600061034661075c565b6103558282610775565b600061034661034260017f22573091f17911fb166032a3d9e0554aa73d31b7b7ddea4a4dd2995650af84bd610bbc565b600061034661034260017fbfaaa2fb63266ff27c2da975f5894955056f50419af651a81f6c5060581857e4610bbc565b600061054f6105ef565b6001600160a01b0316826001600160a01b0316149050919050565b6000816001600160a01b031661057e6105ef565b6001600160a01b0316635aa6e6756040518163ffffffff1660e01b8152600401602060405180830381865afa1580156105bb573d6000803e3d6000fd5b505050506040513d601f19601f820116820180604052508101906105df9190610be2565b6001600160a01b03161492915050565b600061034661034260017f5165972ef41194f06c5007493031d0b927c20741adcb74403b954009fd2c3618610bbc565b6000807ff0c57e16840df040f15088dc2f81fe391c3923bec73e23a9662efc9c229c6a006104cb565b6106506107ee565b61065981610815565b50565b80610665610934565b80546001600160a01b0319166001600160a01b039290921691909117905550565b61068e610958565b60005b825181101561071e578281815181106106ac576106ac610bff565b602090810291909101015160405162900f0160e41b81526001600160a01b03848116600483015290911690630900f01090602401600060405180830381600087803b1580156106fa57600080fd5b505af115801561070e573d6000803e3d6000fd5b5050600190920191506106919050565b505050565b600061072d610934565b6001600160a01b0383166000908152600191909101602052604090205460ff16806104cb57506104cb8261097e565b6000610766610934565b546001600160a01b0316919050565b61077d6109a3565b80156107b35761078b610934565b6001600160a01b038316600090815260019190910160205260409020805460ff191690555050565b60016107bd610934565b6001600160a01b038416600090815260019190910160205260409020805491151560ff199092169190911790555050565b6107f66109c9565b61081357604051631afcd79f60e31b815260040160405180910390fd5b565b6001600160a01b03811661085d5760405162461bcd60e51b815260206004820152600f60248201526e2d32b9379031b7b73a3937b63632b960891b60448201526064016103d4565b61088c8161044960017f5165972ef41194f06c5007493031d0b927c20741adcb74403b954009fd2c3618610bbc565b6108bb4261044960017f6f55f470bdc9cb5f04223fd822021061668e4dccb43e8727b295106dc9769c8b610bbc565b6108ea4361044960017f812a673dfca07956350df10f8a654925f561d7a0da09bdbe79e653939a14d9f1610bbc565b604080516001600160a01b0383168152426020820152438183015290517f1a2dd071001ebf6e03174e3df5b305795a4ad5d41d8fdb9ba41dbbe2367134269181900360600190a150565b7f4c6450c977215891cc3be3fa519a5e16bed895db738a774c07512a1e9245d30090565b61096133610723565b61081357604051638b906c9760e01b815260040160405180910390fd5b6000816001600160a01b0316610992610934565b546001600160a01b03161492915050565b6109ac3361097e565b61081357604051632d5be4cb60e21b815260040160405180910390fd5b60006109d361061f565b54600160401b900460ff16919050565b6001600160a01b038116811461065957600080fd5b8035610a03816109e3565b919050565b600060208284031215610a1a57600080fd5b8135610a25816109e3565b9392505050565b634e487b7160e01b600052604160045260246000fd5b60008060408385031215610a5557600080fd5b823567ffffffffffffffff80821115610a6d57600080fd5b818501915085601f830112610a8157600080fd5b8135602082821115610a9557610a95610a2c565b8160051b604051601f19603f83011681018181108682111715610aba57610aba610a2c565b604052928352818301935084810182019289841115610ad857600080fd5b948201945b83861015610afd57610aee866109f8565b85529482019493820193610add565b9650610b0c90508782016109f8565b9450505050509250929050565b60008060408385031215610b2c57600080fd5b8235610b37816109e3565b915060208301358015158114610b4c57600080fd5b809150509250929050565b60006020808352835180602085015260005b81811015610b8557858101830151858201604001528201610b69565b506000604082860101526040601f19601f8301168501019250505092915050565b634e487b7160e01b600052601160045260246000fd5b818103818111156104cb576104cb610ba6565b808201808211156104cb576104cb610ba6565b600060208284031215610bf457600080fd5b8151610a25816109e3565b634e487b7160e01b600052603260045260246000fdfea26469706673582212202fdea1fc8f5dea03fd401a9b08a77f913ff2384f002a5a21f642c883126fb62d64736f6c63430008170033",
  "devdoc": {
    "errors": {
      "InvalidInitialization()": [
        {
          "details": "The contract is already initialized."
        }
      ],
      "NotInitializing()": [
        {
          "details": "The contract is not initializing."
        }
      ]
    },
    "events": {
      "Initialized(uint64)": {
        "details": "Triggered when the contract has been initialized or reinitialized."
      }
    },
    "kind": "dev",
    "methods": {
      "created()": {
        "returns": {
          "_0": "Creation timestamp"
        }
      },
      "createdBlock()": {
        "returns": {
          "_0": "Creation block number"
        }
      },
      "increaseRevision(address)": {
        "details": "Revision should be increased on each contract upgrade"
      },
      "isController(address)": {
        "details": "Return true if given address is controller"
      },
      "previousImplementation()": {
        "details": "Previous logic implementation"
      },
      "revision()": {
        "details": "Contract upgrade counter"
      }
    },
    "version": 1
  },
  "userdoc": {
    "kind": "user",
    "methods": {
      "CONTROLLABLE_VERSION()": {
        "notice": "Version of the contract"
      },
      "controller()": {
        "notice": "Return controller address saved in the contract slot"
      },
      "created()": {
        "notice": "Return creation timestamp"
      },
      "createdBlock()": {
        "notice": "Return creation block number"
      },
      "isGovernance(address)": {
        "notice": "Return true if given address is setup as governance in Controller"
      }
    },
    "version": 1
  },
  "storageLayout": {
    "storage": [],
    "types": null
  }
}