{
  "address": "0x889677E6d07D22a53dac907d204ecBB08E38B529",
  "abi": [
    {
      "inputs": [],
      "name": "AlreadySet",
      "type": "error"
    },
    {
      "inputs": [],
      "name": "InvalidInitialization",
      "type": "error"
    },
    {
      "inputs": [],
      "name": "NotInitializing",
      "type": "error"
    },
    {
      "inputs": [],
      "name": "ReentrancyGuardReentrantCall",
      "type": "error"
    },
    {
      "inputs": [
        {
          "internalType": "address",
          "name": "token",
          "type": "address"
        }
      ],
      "name": "SafeERC20FailedOperation",
      "type": "error"
    },
    {
      "inputs": [],
      "name": "ShouldUseUpdatePeriod",
      "type": "error"
    },
    {
      "inputs": [],
      "name": "WaitForNewPeriod",
      "type": "error"
    },
    {
      "inputs": [
        {
          "internalType": "address",
          "name": "stakingToken",
          "type": "address"
        }
      ],
      "name": "WrongStakingToken",
      "type": "error"
    },
    {
      "inputs": [],
      "name": "ZeroAddress",
      "type": "error"
    },
    {
      "anonymous": false,
      "inputs": [
        {
          "indexed": false,
          "internalType": "address",
          "name": "token",
          "type": "address"
        }
      ],
      "name": "AddStakingToken",
      "type": "event"
    },
    {
      "anonymous": false,
      "inputs": [
        {
          "indexed": true,
          "internalType": "address",
          "name": "token",
          "type": "address"
        },
        {
          "indexed": true,
          "internalType": "address",
          "name": "account",
          "type": "address"
        },
        {
          "indexed": false,
          "internalType": "uint256",
          "name": "amount",
          "type": "uint256"
        }
      ],
      "name": "BalanceDecreased",
      "type": "event"
    },
    {
      "anonymous": false,
      "inputs": [
        {
          "indexed": true,
          "internalType": "address",
          "name": "token",
          "type": "address"
        },
        {
          "indexed": true,
          "internalType": "address",
          "name": "account",
          "type": "address"
        },
        {
          "indexed": false,
          "internalType": "uint256",
          "name": "amount",
          "type": "uint256"
        }
      ],
      "name": "BalanceIncreased",
      "type": "event"
    },
    {
      "anonymous": false,
      "inputs": [
        {
          "indexed": true,
          "internalType": "address",
          "name": "account",
          "type": "address"
        },
        {
          "indexed": false,
          "internalType": "address",
          "name": "token",
          "type": "address"
        },
        {
          "indexed": true,
          "internalType": "address",
          "name": "reward",
          "type": "address"
        },
        {
          "indexed": false,
          "internalType": "uint256",
          "name": "amount",
          "type": "uint256"
        },
        {
          "indexed": false,
          "internalType": "address",
          "name": "recepient",
          "type": "address"
        }
      ],
      "name": "ClaimRewards",
      "type": "event"
    },
    {
      "anonymous": false,
      "inputs": [
        {
          "indexed": false,
          "internalType": "address",
          "name": "controller",
          "type": "address"
        },
        {
          "indexed": false,
          "internalType": "uint256",
          "name": "ts",
          "type": "uint256"
        },
        {
          "indexed": false,
          "internalType": "uint256",
          "name": "block",
          "type": "uint256"
        }
      ],
      "name": "ContractInitialized",
      "type": "event"
    },
    {
      "anonymous": false,
      "inputs": [
        {
          "indexed": true,
          "internalType": "address",
          "name": "stakingToken",
          "type": "address"
        },
        {
          "indexed": true,
          "internalType": "address",
          "name": "account",
          "type": "address"
        },
        {
          "indexed": false,
          "internalType": "uint256",
          "name": "amount",
          "type": "uint256"
        }
      ],
      "name": "Deposit",
      "type": "event"
    },
    {
      "anonymous": false,
      "inputs": [
        {
          "indexed": false,
          "internalType": "uint64",
          "name": "version",
          "type": "uint64"
        }
      ],
      "name": "Initialized",
      "type": "event"
    },
    {
      "anonymous": false,
      "inputs": [
        {
          "indexed": true,
          "internalType": "address",
          "name": "from",
          "type": "address"
        },
        {
          "indexed": false,
          "internalType": "address",
          "name": "token",
          "type": "address"
        },
        {
          "indexed": true,
          "internalType": "address",
          "name": "reward",
          "type": "address"
        },
        {
          "indexed": false,
          "internalType": "uint256",
          "name": "amount",
          "type": "uint256"
        }
      ],
      "name": "NotifyReward",
      "type": "event"
    },
    {
      "anonymous": false,
      "inputs": [
        {
          "indexed": false,
          "internalType": "uint256",
          "name": "value",
          "type": "uint256"
        },
        {
          "indexed": false,
          "internalType": "address",
          "name": "oldLogic",
          "type": "address"
        }
      ],
      "name": "RevisionIncreased",
      "type": "event"
    },
    {
      "anonymous": false,
      "inputs": [
        {
          "indexed": true,
          "internalType": "address",
          "name": "stakingToken",
          "type": "address"
        },
        {
          "indexed": true,
          "internalType": "address",
          "name": "account",
          "type": "address"
        },
        {
          "indexed": false,
          "internalType": "uint256",
          "name": "amount",
          "type": "uint256"
        },
        {
          "indexed": false,
          "internalType": "bool",
          "name": "full",
          "type": "bool"
        }
      ],
      "name": "Withdraw",
      "type": "event"
    },
    {
      "inputs": [],
      "name": "CONTROLLABLE_VERSION",
      "outputs": [
        {
          "internalType": "string",
          "name": "",
          "type": "string"
        }
      ],
      "stateMutability": "view",
      "type": "function"
    },
    {
      "inputs": [],
      "name": "MULTI_POOL_VERSION",
      "outputs": [
        {
          "internalType": "string",
          "name": "",
          "type": "string"
        }
      ],
      "stateMutability": "view",
      "type": "function"
    },
    {
      "inputs": [],
      "name": "REWARDS_PERIOD",
      "outputs": [
        {
          "internalType": "uint256",
          "name": "",
          "type": "uint256"
        }
      ],
      "stateMutability": "view",
      "type": "function"
    },
    {
      "inputs": [],
      "name": "VERSION",
      "outputs": [
        {
          "internalType": "string",
          "name": "",
          "type": "string"
        }
      ],
      "stateMutability": "view",
      "type": "function"
    },
    {
      "inputs": [],
      "name": "activePeriod",
      "outputs": [
        {
          "internalType": "uint256",
          "name": "",
          "type": "uint256"
        }
      ],
      "stateMutability": "view",
      "type": "function"
    },
    {
      "inputs": [
        {
          "internalType": "address",
          "name": "",
          "type": "address"
        }
      ],
      "name": "addStakingToken",
      "outputs": [],
      "stateMutability": "pure",
      "type": "function"
    },
    {
      "inputs": [
        {
          "internalType": "address",
          "name": "",
          "type": "address"
        },
        {
          "internalType": "address",
          "name": "",
          "type": "address"
        }
      ],
      "name": "balanceOf",
      "outputs": [
        {
          "internalType": "uint256",
          "name": "",
          "type": "uint256"
        }
      ],
      "stateMutability": "view",
      "type": "function"
    },
    {
      "inputs": [],
      "name": "controller",
      "outputs": [
        {
          "internalType": "address",
          "name": "",
          "type": "address"
        }
      ],
      "stateMutability": "view",
      "type": "function"
    },
    {
      "inputs": [],
      "name": "created",
      "outputs": [
        {
          "internalType": "uint256",
          "name": "",
          "type": "uint256"
        }
      ],
      "stateMutability": "view",
      "type": "function"
    },
    {
      "inputs": [],
      "name": "createdBlock",
      "outputs": [
        {
          "internalType": "uint256",
          "name": "",
          "type": "uint256"
        }
      ],
      "stateMutability": "view",
      "type": "function"
    },
    {
      "inputs": [],
      "name": "defaultRewardToken",
      "outputs": [
        {
          "internalType": "address",
          "name": "",
          "type": "address"
        }
      ],
      "stateMutability": "view",
      "type": "function"
    },
    {
      "inputs": [
        {
          "internalType": "address",
          "name": "stakingToken",
          "type": "address"
        },
        {
          "internalType": "address",
          "name": "account",
          "type": "address"
        }
      ],
      "name": "derivedBalance",
      "outputs": [
        {
          "internalType": "uint256",
          "name": "",
          "type": "uint256"
        }
      ],
      "stateMutability": "view",
      "type": "function"
    },
    {
      "inputs": [
        {
          "internalType": "address",
          "name": "",
          "type": "address"
        },
        {
          "internalType": "address",
          "name": "",
          "type": "address"
        }
      ],
      "name": "derivedBalances",
      "outputs": [
        {
          "internalType": "uint256",
          "name": "",
          "type": "uint256"
        }
      ],
      "stateMutability": "view",
      "type": "function"
    },
    {
      "inputs": [
        {
          "internalType": "address",
          "name": "",
          "type": "address"
        }
      ],
      "name": "derivedSupply",
      "outputs": [
        {
          "internalType": "uint256",
          "name": "",
          "type": "uint256"
        }
      ],
      "stateMutability": "view",
      "type": "function"
    },
    {
      "inputs": [],
      "name": "duration",
      "outputs": [
        {
          "internalType": "uint256",
          "name": "",
          "type": "uint256"
        }
      ],
      "stateMutability": "view",
      "type": "function"
    },
    {
      "inputs": [
        {
          "internalType": "address",
          "name": "stakingToken",
          "type": "address"
        },
        {
          "internalType": "address",
          "name": "rewardToken",
          "type": "address"
        },
        {
          "internalType": "address",
          "name": "account",
          "type": "address"
        }
      ],
      "name": "earned",
      "outputs": [
        {
          "internalType": "uint256",
          "name": "",
          "type": "uint256"
        }
      ],
      "stateMutability": "view",
      "type": "function"
    },
    {
      "inputs": [
        {
          "internalType": "address",
          "name": "account",
          "type": "address"
        }
      ],
      "name": "getAllRewards",
      "outputs": [],
      "stateMutability": "nonpayable",
      "type": "function"
    },
    {
      "inputs": [],
      "name": "getPeriod",
      "outputs": [
        {
          "internalType": "uint256",
          "name": "",
          "type": "uint256"
        }
      ],
      "stateMutability": "view",
      "type": "function"
    },
    {
      "inputs": [
        {
          "internalType": "address",
          "name": "account",
          "type": "address"
        },
        {
          "internalType": "address[]",
          "name": "tokens",
          "type": "address[]"
        }
      ],
      "name": "getReward",
      "outputs": [],
      "stateMutability": "nonpayable",
      "type": "function"
    },
    {
      "inputs": [
        {
          "internalType": "address",
          "name": "account",
          "type": "address"
        }
      ],
      "name": "handleBalanceChange",
      "outputs": [],
      "stateMutability": "nonpayable",
      "type": "function"
    },
    {
      "inputs": [
        {
          "internalType": "address",
          "name": "oldLogic",
          "type": "address"
        }
      ],
      "name": "increaseRevision",
      "outputs": [],
      "stateMutability": "nonpayable",
      "type": "function"
    },
    {
      "inputs": [
        {
          "internalType": "address",
          "name": "controller_",
          "type": "address"
        },
        {
          "internalType": "address",
          "name": "xMyrd_",
          "type": "address"
        },
        {
          "internalType": "address",
          "name": "myrd_",
          "type": "address"
        }
      ],
      "name": "init",
      "outputs": [],
      "stateMutability": "nonpayable",
      "type": "function"
    },
    {
      "inputs": [
        {
          "internalType": "address",
          "name": "value_",
          "type": "address"
        }
      ],
      "name": "isController",
      "outputs": [
        {
          "internalType": "bool",
          "name": "",
          "type": "bool"
        }
      ],
      "stateMutability": "view",
      "type": "function"
    },
    {
      "inputs": [
        {
          "internalType": "address",
          "name": "value_",
          "type": "address"
        }
      ],
      "name": "isGovernance",
      "outputs": [
        {
          "internalType": "bool",
          "name": "",
          "type": "bool"
        }
      ],
      "stateMutability": "view",
      "type": "function"
    },
    {
      "inputs": [
        {
          "internalType": "address",
          "name": "",
          "type": "address"
        },
        {
          "internalType": "address",
          "name": "",
          "type": "address"
        }
      ],
      "name": "isRewardToken",
      "outputs": [
        {
          "internalType": "bool",
          "name": "",
          "type": "bool"
        }
      ],
      "stateMutability": "view",
      "type": "function"
    },
    {
      "inputs": [
        {
          "internalType": "address",
          "name": "token",
          "type": "address"
        }
      ],
      "name": "isStakeToken",
      "outputs": [
        {
          "internalType": "bool",
          "name": "",
          "type": "bool"
        }
      ],
      "stateMutability": "view",
      "type": "function"
    },
    {
      "inputs": [
        {
          "internalType": "address",
          "name": "stakingToken",
          "type": "address"
        },
        {
          "internalType": "address",
          "name": "rewardToken",
          "type": "address"
        }
      ],
      "name": "lastTimeRewardApplicable",
      "outputs": [
        {
          "internalType": "uint256",
          "name": "",
          "type": "uint256"
        }
      ],
      "stateMutability": "view",
      "type": "function"
    },
    {
      "inputs": [
        {
          "internalType": "address",
          "name": "",
          "type": "address"
        },
        {
          "internalType": "address",
          "name": "",
          "type": "address"
        }
      ],
      "name": "lastUpdateTime",
      "outputs": [
        {
          "internalType": "uint256",
          "name": "",
          "type": "uint256"
        }
      ],
      "stateMutability": "view",
      "type": "function"
    },
    {
      "inputs": [
        {
          "internalType": "address",
          "name": "stakingToken",
          "type": "address"
        },
        {
          "internalType": "address",
          "name": "rewardToken",
          "type": "address"
        }
      ],
      "name": "left",
      "outputs": [
        {
          "internalType": "uint256",
          "name": "",
          "type": "uint256"
        }
      ],
      "stateMutability": "view",
      "type": "function"
    },
    {
      "inputs": [
        {
          "internalType": "address",
          "name": "token",
          "type": "address"
        },
        {
          "internalType": "uint256",
          "name": "amount",
          "type": "uint256"
        }
      ],
      "name": "notifyRewardAmount",
      "outputs": [],
      "stateMutability": "nonpayable",
      "type": "function"
    },
    {
      "inputs": [
        {
          "internalType": "address",
          "name": "",
          "type": "address"
        },
        {
          "internalType": "address",
          "name": "",
          "type": "address"
        }
      ],
      "name": "periodFinish",
      "outputs": [
        {
          "internalType": "uint256",
          "name": "",
          "type": "uint256"
        }
      ],
      "stateMutability": "view",
      "type": "function"
    },
    {
      "inputs": [],
      "name": "previousImplementation",
      "outputs": [
        {
          "internalType": "address",
          "name": "",
          "type": "address"
        }
      ],
      "stateMutability": "view",
      "type": "function"
    },
    {
      "inputs": [
        {
          "internalType": "address",
          "name": "stakeToken",
          "type": "address"
        },
        {
          "internalType": "address",
          "name": "rewardToken",
          "type": "address"
        }
      ],
      "name": "registerRewardToken",
      "outputs": [],
      "stateMutability": "nonpayable",
      "type": "function"
    },
    {
      "inputs": [
        {
          "internalType": "address",
          "name": "stakeToken",
          "type": "address"
        },
        {
          "internalType": "address",
          "name": "rewardToken",
          "type": "address"
        }
      ],
      "name": "removeRewardToken",
      "outputs": [],
      "stateMutability": "nonpayable",
      "type": "function"
    },
    {
      "inputs": [],
      "name": "revision",
      "outputs": [
        {
          "internalType": "uint256",
          "name": "",
          "type": "uint256"
        }
      ],
      "stateMutability": "view",
      "type": "function"
    },
    {
      "inputs": [
        {
          "internalType": "address",
          "name": "stakingToken",
          "type": "address"
        },
        {
          "internalType": "address",
          "name": "rewardToken",
          "type": "address"
        }
      ],
      "name": "rewardPerToken",
      "outputs": [
        {
          "internalType": "uint256",
          "name": "",
          "type": "uint256"
        }
      ],
      "stateMutability": "view",
      "type": "function"
    },
    {
      "inputs": [
        {
          "internalType": "address",
          "name": "",
          "type": "address"
        },
        {
          "internalType": "address",
          "name": "",
          "type": "address"
        }
      ],
      "name": "rewardPerTokenStored",
      "outputs": [
        {
          "internalType": "uint256",
          "name": "",
          "type": "uint256"
        }
      ],
      "stateMutability": "view",
      "type": "function"
    },
    {
      "inputs": [
        {
          "internalType": "address",
          "name": "",
          "type": "address"
        },
        {
          "internalType": "address",
          "name": "",
          "type": "address"
        }
      ],
      "name": "rewardRate",
      "outputs": [
        {
          "internalType": "uint256",
          "name": "",
          "type": "uint256"
        }
      ],
      "stateMutability": "view",
      "type": "function"
    },
    {
      "inputs": [
        {
          "internalType": "address",
          "name": "",
          "type": "address"
        },
        {
          "internalType": "uint256",
          "name": "",
          "type": "uint256"
        }
      ],
      "name": "rewardTokens",
      "outputs": [
        {
          "internalType": "address",
          "name": "",
          "type": "address"
        }
      ],
      "stateMutability": "view",
      "type": "function"
    },
    {
      "inputs": [
        {
          "internalType": "address",
          "name": "token",
          "type": "address"
        }
      ],
      "name": "rewardTokensLength",
      "outputs": [
        {
          "internalType": "uint256",
          "name": "",
          "type": "uint256"
        }
      ],
      "stateMutability": "view",
      "type": "function"
    },
    {
      "inputs": [
        {
          "internalType": "address",
          "name": "",
          "type": "address"
        },
        {
          "internalType": "address",
          "name": "",
          "type": "address"
        },
        {
          "internalType": "address",
          "name": "",
          "type": "address"
        }
      ],
      "name": "rewards",
      "outputs": [
        {
          "internalType": "uint256",
          "name": "",
          "type": "uint256"
        }
      ],
      "stateMutability": "view",
      "type": "function"
    },
    {
      "inputs": [
        {
          "internalType": "address",
          "name": "",
          "type": "address"
        }
      ],
      "name": "rewardsRedirect",
      "outputs": [
        {
          "internalType": "address",
          "name": "",
          "type": "address"
        }
      ],
      "stateMutability": "view",
      "type": "function"
    },
    {
      "inputs": [
        {
          "internalType": "address",
          "name": "account",
          "type": "address"
        },
        {
          "internalType": "address",
          "name": "recipient",
          "type": "address"
        }
      ],
      "name": "setRewardsRedirect",
      "outputs": [],
      "stateMutability": "nonpayable",
      "type": "function"
    },
    {
      "inputs": [
        {
          "internalType": "address",
          "name": "",
          "type": "address"
        }
      ],
      "name": "totalSupply",
      "outputs": [
        {
          "internalType": "uint256",
          "name": "",
          "type": "uint256"
        }
      ],
      "stateMutability": "view",
      "type": "function"
    },
    {
      "inputs": [
        {
          "internalType": "uint256",
          "name": "amount_",
          "type": "uint256"
        }
      ],
      "name": "updatePeriod",
      "outputs": [],
      "stateMutability": "nonpayable",
      "type": "function"
    },
    {
      "inputs": [
        {
          "internalType": "address",
          "name": "",
          "type": "address"
        },
        {
          "internalType": "address",
          "name": "",
          "type": "address"
        },
        {
          "internalType": "address",
          "name": "",
          "type": "address"
        }
      ],
      "name": "userRewardPerTokenPaid",
      "outputs": [
        {
          "internalType": "uint256",
          "name": "",
          "type": "uint256"
        }
      ],
      "stateMutability": "view",
      "type": "function"
    },
    {
      "inputs": [],
      "name": "xMyrd",
      "outputs": [
        {
          "internalType": "address",
          "name": "",
          "type": "address"
        }
      ],
      "stateMutability": "view",
      "type": "function"
    }
  ],
  "transactionHash": "0x202d667d11a5cee94d928da1ca711c9415d4106886ab0febd1a472e834365d95",
  "args": [],
  "numDeployments": 1,
  "solcInputHash": "f25b95755413e96c8a180219e748c24d",
  "bytecode": "0x60806040523480156200001157600080fd5b50600160009081557ff0c57e16840df040f15088dc2f81fe391c3923bec73e23a9662efc9c229c6a008054909168010000000000000000820460ff1615916001600160401b03169081158015620000655750825b90506000826001600160401b03166001148015620000825750303b155b90508115801562000091575080155b15620000b05760405163f92ee8a960e01b815260040160405180910390fd5b84546001600160401b03191660011785558315620000df57845460ff60401b1916680100000000000000001785555b83156200012657845460ff60401b19168555604051600181527fc7f505b2f371ae2175ee4913f4499e1f2633a7b5936321eed1cdaeb6115181d29060200160405180910390a15b5050505050612f4f806200013b6000396000f3fe608060405234801561001057600080fd5b50600436106102955760003560e01c806379251d8811610167578063bde4ad12116100ce578063e4dc2aa411610087578063e4dc2aa41461068a578063f2c2c2c9146106aa578063f77c4791146106bd578063f7888aec146106c5578063ff3a4ac0146106f0578063ffa1ad741461045d57600080fd5b8063bde4ad1214610600578063c588ee5b14610613578063c804a0191461063e578063dee1f0e414610651578063dffaf44914610664578063e270d1df1461067757600080fd5b80639d0bcca0116101205780639d0bcca014610565578063ab674e0c1461056d578063b02bf8d814610596578063b429afeb146105c7578063b5a18215146105da578063b66503cf146105ed57600080fd5b806379251d88146104e457806379d83f8e146104f75780637cc963801461050c57806381a4af1514610514578063884e0e6614610527578063936725ec1461045d57600080fd5b80633609582a1161020b5780635c0a1bf8116101c45780635c0a1bf8146104175780636180c3f9146104215780636210c7431461043457806365a9111c1461045d578063693d1dc21461048e5780636f4fcf71146104b957600080fd5b80633609582a14610398578063362a3fad146103ab57806339fee755146103be5780634593144c146103e95780634d9c6cb0146103f15780634fac6ccd1461040457600080fd5b806321985e131161025d57806321985e13146102fb5780632a9dd0ce1461030e5780632b72cee71461033f5780632f88b48d1461035257806331279d3d1461037d578063325a19f11461039057600080fd5b80630a441f7b1461029a5780630dc07112146102b55780630fb5a6b4146102d5578063184b9559146102de5780631ed24195146102f3575b600080fd5b6102a2610703565b6040519081526020015b60405180910390f35b6102a26102c3366004612ba2565b60036020526000908152604090205481565b6102a260015481565b6102f16102ec366004612bc6565b610716565b005b6102a2610867565b6102f1610309366004612ba2565b61087b565b6102a261031c366004612bc6565b600c60209081526000938452604080852082529284528284209052825290205481565b6102a261034d366004612c11565b610894565b6102a2610360366004612c11565b600960209081526000928352604080842090915290825290205481565b6102f161038b366004612c60565b610984565b6102a26109a5565b6102f16103a6366004612c11565b6109d9565b6102f16103b9366004612ba2565b610a47565b6102a26103cc366004612c11565b600a60209081526000928352604080842090915290825290205481565b6102a2610b83565b6102a26103ff366004612c11565b610bb3565b6102f1610412366004612ba2565b610bf1565b6102a262093a8081565b6102a261042f366004612c11565b610d23565b6102a2610442366004612ba2565b6001600160a01b03166000908152600d602052604090205490565b610481604051806040016040528060058152602001640312e302e360dc1b81525081565b6040516102ac9190612d3a565b6102a261049c366004612c11565b600460209081526000928352604080842090915290825290205481565b6102a26104c7366004612c11565b600760209081526000928352604080842090915290825290205481565b6102f16104f2366004612c11565b610dbb565b6104ff611119565b6040516102ac9190612d89565b6102a2611132565b6104ff610522366004612d9d565b611162565b610555610535366004612c11565b600e60209081526000928352604080842090915290825290205460ff1681565b60405190151581526020016102ac565b6104ff61119a565b6104ff61057b366004612ba2565b600f602052600090815260409020546001600160a01b031681565b6102a26105a4366004612bc6565b600b60209081526000938452604080852082529284528284209052825290205481565b6105556105d5366004612ba2565b6111ca565b6102a26105e8366004612c11565b6111ef565b6102f16105fb366004612d9d565b61121a565b6102a261060e366004612bc6565b6112ed565b6102a2610621366004612c11565b600860209081526000928352604080842090915290825290205481565b61055561064c366004612ba2565b61138f565b61055561065f366004612ba2565b6113b4565b6102f1610672366004612c11565b611439565b6102f1610685366004612dc9565b611695565b6102a2610698366004612ba2565b60066020526000908152604090205481565b6102f16106b8366004612ba2565b611855565b6104ff611951565b6102a26106d3366004612c11565b600560209081526000928352604080842090915290825290205481565b6002546104ff906001600160a01b031681565b600061070d611981565b60010154905090565b60006107206119a5565b805490915060ff600160401b820416159067ffffffffffffffff166000811580156107485750825b905060008267ffffffffffffffff1660011480156107655750303b155b905081158015610773575080155b156107915760405163f92ee8a960e01b815260040160405180910390fd5b845467ffffffffffffffff1916600117855583156107bb57845460ff60401b1916600160401b1785555b6107c9888762093a806119ce565b6001600160a01b0387166107f05760405163d92e233d60e01b815260040160405180910390fd5b866107f9611981565b80546001600160a01b0319166001600160a01b0392909216919091179055831561085d57845460ff60401b19168555604051600181527fc7f505b2f371ae2175ee4913f4499e1f2633a7b5936321eed1cdaeb6115181d29060200160405180910390a15b5050505050505050565b600061087662093a8042612df8565b905090565b60405163a741a04560e01b815260040160405180910390fd5b6001600160a01b0382166000908152600360205260408120548082036108e15750506001600160a01b038083166000908152600a602090815260408083209385168352929052205461097e565b6001600160a01b0380851660008181526007602090815260408083209488168084529482528083205493835260098252808320948352939052919091205482919061092c8787610bb3565b6109369190612e1a565b6109409190612e2d565b61094a9190612df8565b6001600160a01b038086166000908152600a602090815260408083209388168352929052205461097a9190612e44565b9150505b92915050565b6109a161098f611981565b546001600160a01b0316838381611a99565b5050565b60006108766109d560017f6f55f470bdc9cb5f04223fd822021061668e4dccb43e8727b295106dc9769c8b612e1a565b5490565b336001600160a01b03831614806109f457506109f4336113b4565b610a195760405162461bcd60e51b8152600401610a1090612e57565b60405180910390fd5b6001600160a01b039182166000908152600f6020526040902080546001600160a01b03191691909216179055565b6000610a51611981565b546001600160a01b03166000818152600d6020526040812080549293509190610a7b826001612e44565b67ffffffffffffffff811115610a9357610a93612c4a565b604051908082528060200260200182016040528015610abc578160200160208202803683370190505b50905060005b82811015610b2c57838181548110610adc57610adc612e7c565b9060005260206000200160009054906101000a90046001600160a01b0316828281518110610b0c57610b0c612e7c565b6001600160a01b0390921660209283029190910190910152600101610ac2565b5060025481516001600160a01b0390911690829084908110610b5057610b50612e7c565b60200260200101906001600160a01b031690816001600160a01b031681525050610b7c84868388611a99565b5050505050565b60006108766109d560017f812a673dfca07956350df10f8a654925f561d7a0da09bdbe79e653939a14d9f1612e1a565b6001600160a01b038083166000908152600860209081526040808320938516835292905290812054428111610be8578061097a565b50429392505050565b333014610c405760405162461bcd60e51b815260206004820152601b60248201527f496e637265617365207265766973696f6e20666f7262696464656e00000000006044820152606401610a10565b6000610c706109d560017f22573091f17911fb166032a3d9e0554aa73d31b7b7ddea4a4dd2995650af84bd612e1a565b610c7b906001612e44565b9050610caf81610cac60017f22573091f17911fb166032a3d9e0554aa73d31b7b7ddea4a4dd2995650af84bd612e1a565b55565b610cde82610cac60017fbfaaa2fb63266ff27c2da975f5894955056f50419af651a81f6c5060581857e4612e1a565b604080518281526001600160a01b03841660208201527ff27e2ef832a4eb8ed8ec553b875eecd44764cda95b1c24170e281539e0a869c8910160405180910390a15050565b6001600160a01b038083166000908152600860209081526040808320938516835292905290812054428111610d5c57600091505061097e565b6000610d684283612e1a565b6001600160a01b03808716600090815260076020908152604080832093891683529290522054909150676765c793fa10079d601b1b90610da89083612e2d565b610db29190612df8565b95945050505050565b6000610dc5611951565b9050806001600160a01b0316635aa6e6756040518163ffffffff1660e01b8152600401602060405180830381865afa158015610e05573d6000803e3d6000fd5b505050506040513d601f19601f82011682018060405250810190610e299190612e92565b6001600160a01b0316336001600160a01b03161480610eb05750604051631430d62960e21b81526001600160a01b038216906350c358a490610e6f903390600401612d89565b602060405180830381865afa158015610e8c573d6000803e3d6000fd5b505050506040513d601f19601f82011682018060405250810190610eb09190612eaf565b610ecc5760405162461bcd60e51b8152600401610a1090612e57565b6001600160a01b038084166000908152600860209081526040808320938616835292905220544211610f345760405162461bcd60e51b815260206004820152601160248201527014995dd85c991cc81b9bdd08195b991959607a1b6044820152606401610a10565b6001600160a01b038084166000908152600e602090815260408083209386168352929052205460ff16610f9c5760405162461bcd60e51b815260206004820152601060248201526f2737ba103932bbb0b932103a37b5b2b760811b6044820152606401610a10565b6001600160a01b038084166000818152600e602090815260408083209487168352938152838220805460ff19169055918152600d90915290812054905b8181101561103b576001600160a01b0385166000908152600d6020526040812080548390811061100b5761100b612e7c565b6000918252602090912001546001600160a01b03908116915085168103611032575061103b565b50600101610fd9565b6001600160a01b0385166000908152600d6020526040902061105e600184612e1a565b8154811061106e5761106e612e7c565b60009182526020808320909101546001600160a01b038881168452600d90925260409092208054919092169190839081106110ab576110ab612e7c565b600091825260208083209190910180546001600160a01b0319166001600160a01b039485161790559187168152600d909152604090208054806110f0576110f0612ed1565b600082815260209020810160001990810180546001600160a01b03191690550190555050505050565b6000611123611981565b546001600160a01b0316919050565b60006108766109d560017f22573091f17911fb166032a3d9e0554aa73d31b7b7ddea4a4dd2995650af84bd612e1a565b600d602052816000526040600020818154811061117e57600080fd5b6000918252602090912001546001600160a01b03169150829050565b60006108766109d560017fbfaaa2fb63266ff27c2da975f5894955056f50419af651a81f6c5060581857e4612e1a565b60006111d4611951565b6001600160a01b0316826001600160a01b0316149050919050565b6001600160a01b03918216600090815260056020908152604080832093909416825291909152205490565b611222611d2b565b6002546001600160a01b039081169083160361125157604051639288929360e01b815260040160405180910390fd5b6040516370a0823160e01b81526000906001600160a01b038416906370a0823190611280903090600401612d89565b602060405180830381865afa15801561129d573d6000803e3d6000fd5b505050506040513d601f19601f820116820180604052508101906112c19190612ee7565b90506112e26112ce611981565b546001600160a01b03168484600185611d55565b506109a16001600055565b6001600160a01b038084166000818152600c6020908152604080832087861680855290835281842095871680855295835281842054948452600b8352818420908452825280832094835293905291822054676765c793fa10079d601b1b906113558787610894565b61135f9190612e1a565b61136987866111ef565b6113739190612e2d565b61137d9190612df8565b6113879190612e44565b949350505050565b6000816001600160a01b03166113a3611981565b546001600160a01b03161492915050565b6000816001600160a01b03166113c8611951565b6001600160a01b0316635aa6e6756040518163ffffffff1660e01b8152600401602060405180830381865afa158015611405573d6000803e3d6000fd5b505050506040513d601f19601f820116820180604052508101906114299190612e92565b6001600160a01b03161492915050565b6000611443611951565b9050806001600160a01b0316635aa6e6756040518163ffffffff1660e01b8152600401602060405180830381865afa158015611483573d6000803e3d6000fd5b505050506040513d601f19601f820116820180604052508101906114a79190612e92565b6001600160a01b0316336001600160a01b0316148061152e5750604051631430d62960e21b81526001600160a01b038216906350c358a4906114ed903390600401612d89565b602060405180830381865afa15801561150a573d6000803e3d6000fd5b505050506040513d601f19601f8201168201806040525081019061152e9190612eaf565b61154a5760405162461bcd60e51b8152600401610a1090612e57565b6001600160a01b0383166000908152600d6020526040902054600a116115ab5760405162461bcd60e51b8152602060048201526016602482015275546f6f206d616e792072657761726420746f6b656e7360501b6044820152606401610a10565b6001600160a01b038084166000908152600e602090815260408083209386168352929052205460ff161580156115ef57506002546001600160a01b03838116911614155b6116305760405162461bcd60e51b8152602060048201526012602482015271105b1c9958591e481c9959da5cdd195c995960721b6044820152606401610a10565b506001600160a01b039182166000818152600e6020908152604080832094909516808352938152848220805460ff19166001908117909155928252600d81529381208054928301815581529290922090910180546001600160a01b0319169091179055565b600061169f611981565b905060006116ab610867565b9050808260010154106116d157604051638e8f3c7f60e01b815260040160405180910390fd5b6001820181905581546002546040516370a0823160e01b81526001600160a01b03928316929091169060009082906370a0823190611713903090600401612d89565b602060405180830381865afa158015611730573d6000803e3d6000fd5b505050506040513d601f19601f820116820180604052508101906117549190612ee7565b9050826001600160a01b031663af14052c6040518163ffffffff1660e01b8152600401600060405180830381600087803b15801561179157600080fd5b505af11580156117a5573d6000803e3d6000fd5b50506040516370a0823160e01b8152600092506001600160a01b03851691506370a08231906117d8903090600401612d89565b602060405180830381865afa1580156117f5573d6000803e3d6000fd5b505050506040513d601f19601f820116820180604052508101906118199190612ee7565b90508181118061182857508615155b1561184c5761184c611838611981565b546001600160a01b03168489600186611d55565b50505050505050565b3361185f8161138f565b61187e5780604051631160c15360e31b8152600401610a109190612d89565b6001600160a01b03808216600081815260056020908152604080832094871683529390528281205492516370a0823160e01b81529091906370a08231906118c9908790600401612d89565b602060405180830381865afa1580156118e6573d6000803e3d6000fd5b505050506040513d601f19601f8201168201806040525081019061190a9190612ee7565b90508082101561192d5761192883856119238585612e1a565b612113565b61194b565b8082111561194b5761194b83856119448486612e1a565b8415612170565b50505050565b60006108766109d560017f5165972ef41194f06c5007493031d0b927c20741adcb74403b954009fd2c3618612e1a565b7f56fe937432a4b636174f357965a052660eeb836d7a87be456fd784604b73300090565b6000807ff0c57e16840df040f15088dc2f81fe391c3923bec73e23a9662efc9c229c6a0061097e565b6119d66121cb565b6119df836121f2565b6001600160a01b038216611a355760405162461bcd60e51b815260206004820152601960248201527f5a65726f2064656661756c742072657761726420746f6b656e000000000000006044820152606401610a10565b600280546001600160a01b0319166001600160a01b0384161790556000819003611a925760405162461bcd60e51b815260206004820152600e60248201526d3bb937b73390323ab930ba34b7b760911b6044820152606401610a10565b6001555050565b60025482516001600160a01b03909116906000805b82811015611afe57836001600160a01b0316868281518110611ad257611ad2612e7c565b60200260200101516001600160a01b031614611af65781611af281612f00565b9250505b600101611aae565b5060008115611b1757611b12868386612206565b611b19565b855b90508115611b2d57611b2d888883886122fe565b81831461085d576001600160a01b038086166000908152600f6020526040902054168015611b59578095505b6001600160a01b0386163314611b815760405162461bcd60e51b8152600401610a1090612e57565b611b8b8989612470565b611b9689868a612517565b6001600160a01b03808a166000908152600c6020908152604080832089851684528252808320938c16835292905220548015611ccc576001600160a01b038a81166000818152600c602090815260408083208b8616808552908352818420958f16845294909152808220919091555163095ea7b360e01b815260048101919091526024810183905263095ea7b3906044016020604051808303816000875af1158015611c46573d6000803e3d6000fd5b505050506040513d601f19601f82011682018060405250810190611c6a9190612eaf565b50604051626352e160e11b8152600481018290526001600160a01b0388811660248301528b169062c6a5c290604401600060405180830381600087803b158015611cb357600080fd5b505af1158015611cc7573d6000803e3d6000fd5b505050505b604080516001600160a01b038c8116825260208201849052898116828401529151888316928c16917f88744b3615a11586336358f196290c37189c924b0ce7f612d07789041af7cde4919081900360600190a350505050505050505050565b600260005403611d4e57604051633ee5aeb560e01b815260040160405180910390fd5b6002600055565b6002546001600160a01b0385811691161480611d9657506001600160a01b038086166000908152600e602090815260408083209388168352929052205460ff165b611dd65760405162461bcd60e51b8152602060048201526011602482015270151bdad95b881b9bdd08185b1b1bddd959607a1b6044820152606401610a10565b611de285856000612517565b6001548215611e06578315611e0657611e066001600160a01b0386163330876125ec565b6040516370a0823160e01b815282906001600160a01b038716906370a0823190611e34903090600401612d89565b602060405180830381865afa158015611e51573d6000803e3d6000fd5b505050506040513d601f19601f82011682018060405250810190611e759190612ee7565b611e7f9190612e1a565b935060008411611ebf5760405162461bcd60e51b815260206004820152600b60248201526a16995c9bc8185b5bdd5b9d60aa1b6044820152606401610a10565b6001600160a01b038087166000908152600860209081526040808320938916835292905220544210611f365780611f01676765c793fa10079d601b1b86612e2d565b611f0b9190612df8565b6001600160a01b038088166000908152600760209081526040808320938a168352929052205561206f565b6001600160a01b038087166000908152600860209081526040808320938916835292905290812054611f69904290612e1a565b6001600160a01b038089166000908152600760209081526040808320938b1683529290529081205491925090611f9f9083612e2d565b9050611fb6676765c793fa10079d601b1b82612df8565b861161201b5760405162461bcd60e51b815260206004820152602e60248201527f416d6f756e742073686f756c6420626520686967686572207468616e2072656d60448201526d61696e696e67207265776172647360901b6064820152608401610a10565b8281612032676765c793fa10079d601b1b89612e2d565b61203c9190612e44565b6120469190612df8565b6001600160a01b03808a166000908152600760209081526040808320938c168352929052205550505b6001600160a01b03808716600090815260096020908152604080832093891683529290522042908190556120a4908290612e44565b6001600160a01b038781166000818152600860209081526040808320948b1680845294825291829020949094558051918252928101879052909133917f8bc5b8ae8531594dc64933af585227ad004b32082b540c609664369a112e2c18910160405180910390a3505050505050565b61211e838383612653565b816001600160a01b0316836001600160a01b03167f5548c837ab068cf56a2c2479df0882a4922fd203edb7517321831d95078c5f628360405161216391815260200190565b60405180910390a3505050565b61217b848484612751565b6040805183815282151560208201526001600160a01b0380861692908716917f2b664ab52fe561d3ace376046aea39744dd736ec1f67d89d504ffd2192825f61910160405180910390a350505050565b6121d36127fa565b6121f057604051631afcd79f60e31b815260040160405180910390fd5b565b6121fa6121cb565b61220381612814565b50565b606060008367ffffffffffffffff81111561222357612223612c4a565b60405190808252806020026020018201604052801561224c578160200160208202803683370190505b508551909150600090815b818110156122f257856001600160a01b031688828151811061227b5761227b612e7c565b60200260200101516001600160a01b0316146122ea578781815181106122a3576122a3612e7c565b60200260200101518484806122b790612f00565b9550815181106122c9576122c9612e7c565b60200260200101906001600160a01b031690816001600160a01b0316815250505b600101612257565b50919695505050505050565b612306611d2b565b6001600160a01b038082166000908152600f602052604090205416801561232b578091505b6001600160a01b03821633146123535760405162461bcd60e51b8152600401610a1090612e57565b61235d8585612470565b60005b835181101561246457600084828151811061237d5761237d612e7c565b60200260200101519050612392878288612517565b6001600160a01b038088166000908152600c6020908152604080832085851684528252808320938a16835292905220548015612407576001600160a01b038089166000908152600c60209081526040808320868516808552908352818420948c16845293909152812055612407908683612933565b604080516001600160a01b038a8116825260208201849052878116828401529151848316928a16917f88744b3615a11586336358f196290c37189c924b0ce7f612d07789041af7cde4919081900360600190a35050600101612360565b505061194b6001600055565b6001600160a01b038083166000818152600460209081526040808320948616835293815283822054928252600390529182208054919283926124b3908490612e1a565b909155506124c3905083836111ef565b6001600160a01b038085166000818152600460209081526040808320948816835293815283822085905591815260039091529081208054929350839290919061250d908490612e44565b9091555050505050565b60006125238484610894565b6001600160a01b038086166000908152600a6020908152604080832093881683529290522081905590506125578484610bb3565b6001600160a01b038086166000908152600960209081526040808320888516845290915290209190915582161561194b576125938484846112ed565b6001600160a01b039485166000818152600c602090815260408083209789168084529782528083209690981680835295815287822093909355908152600b82528581209481529381528484209284529190915291902055565b6040516001600160a01b03848116602483015283811660448301526064820183905261194b9186918216906323b872dd906084015b604051602081830303815290604052915060e01b6020820180516001600160e01b038381831617835250505050612964565b61265b611d2b565b6126648361138f565b6126ac5760405162461bcd60e51b815260206004820152601960248201527814dd185ada5b99c81d1bdad95b881b9bdd08185b1b1bddd959603a1b6044820152606401610a10565b600081116126ea5760405162461bcd60e51b815260206004820152600b60248201526a16995c9bc8185b5bdd5b9d60aa1b6044820152606401610a10565b6126f58383836129cc565b816001600160a01b0316836001600160a01b03167f0d66f59c9991adc17dd3339490c5058d2d6fe20395e7b55ceb6ca8019a31667d8360405161273a91815260200190565b60405180910390a361274c6001600055565b505050565b612759611d2b565b6127628361138f565b6127aa5760405162461bcd60e51b815260206004820152601960248201527814dd185ada5b99c81d1bdad95b881b9bdd08185b1b1bddd959603a1b6044820152606401610a10565b6127b5838383612a4a565b816001600160a01b0316836001600160a01b03167f6ac2cd906088d873624fa62ca95170d967629e7d964651df19a3aa2e49b44aa18360405161273a91815260200190565b60006128046119a5565b54600160401b900460ff16919050565b6001600160a01b03811661285c5760405162461bcd60e51b815260206004820152600f60248201526e2d32b9379031b7b73a3937b63632b960891b6044820152606401610a10565b61288b81610cac60017f5165972ef41194f06c5007493031d0b927c20741adcb74403b954009fd2c3618612e1a565b6128ba42610cac60017f6f55f470bdc9cb5f04223fd822021061668e4dccb43e8727b295106dc9769c8b612e1a565b6128e943610cac60017f812a673dfca07956350df10f8a654925f561d7a0da09bdbe79e653939a14d9f1612e1a565b604080516001600160a01b0383168152426020820152438183015290517f1a2dd071001ebf6e03174e3df5b305795a4ad5d41d8fdb9ba41dbbe2367134269181900360600190a150565b6040516001600160a01b0383811660248301526044820183905261274c91859182169063a9059cbb90606401612621565b600080602060008451602086016000885af180612987576040513d6000823e3d81fd5b50506000513d9150811561299f5780600114156129ac565b6001600160a01b0384163b155b1561194b5783604051635274afe760e01b8152600401610a109190612d89565b6129d68383612ab8565b6001600160a01b038316600090815260066020526040812080548392906129fe908490612e44565b90915550506001600160a01b03808416600090815260056020908152604080832093861683529290529081208054839290612a3a908490612e44565b9091555061274c90508383612470565b612a548383612ab8565b6001600160a01b03831660009081526006602052604081208054839290612a7c908490612e1a565b90915550506001600160a01b03808416600090815260056020908152604080832093861683529290529081208054839290612a3a908490612e1a565b6001600160a01b0382166000908152600d6020908152604080832080548251818502810185019093528083529192909190830182828015612b2257602002820191906000526020600020905b81546001600160a01b03168152600190910190602001808311612b04575b505083519394506000925050505b81811015612b6457612b5c85848381518110612b4e57612b4e612e7c565b602002602001015186612517565b600101612b30565b5060025461194b9085906001600160a01b031685612517565b6001600160a01b038116811461220357600080fd5b8035612b9d81612b7d565b919050565b600060208284031215612bb457600080fd5b8135612bbf81612b7d565b9392505050565b600080600060608486031215612bdb57600080fd5b8335612be681612b7d565b92506020840135612bf681612b7d565b91506040840135612c0681612b7d565b809150509250925092565b60008060408385031215612c2457600080fd5b8235612c2f81612b7d565b91506020830135612c3f81612b7d565b809150509250929050565b634e487b7160e01b600052604160045260246000fd5b60008060408385031215612c7357600080fd5b8235612c7e81612b7d565b915060208381013567ffffffffffffffff80821115612c9c57600080fd5b818601915086601f830112612cb057600080fd5b813581811115612cc257612cc2612c4a565b8060051b604051601f19603f83011681018181108582111715612ce757612ce7612c4a565b604052918252848201925083810185019189831115612d0557600080fd5b938501935b82851015612d2a57612d1b85612b92565b84529385019392850192612d0a565b8096505050505050509250929050565b60006020808352835180602085015260005b81811015612d6857858101830151858201604001528201612d4c565b506000604082860101526040601f19601f8301168501019250505092915050565b6001600160a01b0391909116815260200190565b60008060408385031215612db057600080fd5b8235612dbb81612b7d565b946020939093013593505050565b600060208284031215612ddb57600080fd5b5035919050565b634e487b7160e01b600052601160045260246000fd5b600082612e1557634e487b7160e01b600052601260045260246000fd5b500490565b8181038181111561097e5761097e612de2565b808202811582820484141761097e5761097e612de2565b8082018082111561097e5761097e612de2565b6020808252600b908201526a139bdd08185b1b1bddd95960aa1b604082015260600190565b634e487b7160e01b600052603260045260246000fd5b600060208284031215612ea457600080fd5b8151612bbf81612b7d565b600060208284031215612ec157600080fd5b81518015158114612bbf57600080fd5b634e487b7160e01b600052603160045260246000fd5b600060208284031215612ef957600080fd5b5051919050565b600060018201612f1257612f12612de2565b506001019056fea26469706673582212202c6b78f6051b4aa45ac1f1850c967f525df16c3e2dbcfbebdf3dd76acc3efaf764736f6c63430008170033",
  "devdoc": {
    "errors": {
      "InvalidInitialization()": [
        {
          "details": "The contract is already initialized."
        }
      ],
      "NotInitializing()": [
        {
          "details": "The contract is not initializing."
        }
      ],
      "ReentrancyGuardReentrantCall()": [
        {
          "details": "Unauthorized reentrant call."
        }
      ],
      "SafeERC20FailedOperation(address)": [
        {
          "details": "An operation with an ERC-20 token failed."
        }
      ]
    },
    "events": {
      "Initialized(uint64)": {
        "details": "Triggered when the contract has been initialized or reinitialized."
      }
    },
    "kind": "dev",
    "methods": {
      "addStakingToken(address)": {
        "details": "Only one staking token (xMyrd) is allowed in the current implementation, it's already set in the constructor"
      },
      "created()": {
        "returns": {
          "_0": "Creation timestamp"
        }
      },
      "createdBlock()": {
        "returns": {
          "_0": "Creation block number"
        }
      },
      "derivedBalance(address,address)": {
        "details": "Balance of holder adjusted with specific rules for boost calculation.      Supposed to be implemented in a parent contract      Adjust user balance with some logic, like boost logic."
      },
      "earned(address,address,address)": {
        "details": "Approximate of earned rewards ready to claim"
      },
      "handleBalanceChange(address)": {
        "details": "Must be called from stakingToken when user balance changed."
      },
      "increaseRevision(address)": {
        "details": "Revision should be increased on each contract upgrade"
      },
      "init(address,address,address)": {
        "params": {
          "myrd_": "is default reward token",
          "xMyrd_": "is sole staking token"
        }
      },
      "isController(address)": {
        "details": "Return true if given address is controller"
      },
      "isStakeToken(address)": {
        "details": "Should return true for whitelisted reward tokens"
      },
      "lastTimeRewardApplicable(address,address)": {
        "details": "Returns the last time the reward was modified or periodFinish if the reward has ended"
      },
      "left(address,address)": {
        "details": "Amount of reward tokens left for the current period"
      },
      "previousImplementation()": {
        "details": "Previous logic implementation"
      },
      "registerRewardToken(address,address)": {
        "details": "Whitelist reward token for staking token. Only operator can do it."
      },
      "removeRewardToken(address,address)": {
        "details": "Remove from whitelist reward token for staking token. Only operator can do it.      We assume that default token can not be removed."
      },
      "revision()": {
        "details": "Contract upgrade counter"
      },
      "rewardPerToken(address,address)": {
        "details": "Reward paid for token for the current period."
      },
      "rewardTokensLength(address)": {
        "details": "Length of rewards tokens array for given token"
      },
      "setRewardsRedirect(address,address)": {
        "details": "Account or governance can setup a redirect of all rewards.      It needs for 3rd party contracts integrations."
      },
      "updatePeriod(uint256)": {
        "params": {
          "amount_": "Amount of MYRD-rewards for next period = amount_ + penalty received from xMyrd"
        }
      }
    },
    "stateVariables": {
      "VERSION": {
        "details": "Version of this contract. Adjust manually on each code modification."
      }
    },
    "title": "Stakeless pool for single staking token (xMyrd)",
    "version": 1
  },
  "userdoc": {
    "errors": {
      "ShouldUseUpdatePeriod()": [
        {
          "notice": "Direct call of notifyRewardAmount for MYRD is not allowed, call updatePeriod(additionalMyrdAmount) instead"
        }
      ]
    },
    "kind": "user",
    "methods": {
      "CONTROLLABLE_VERSION()": {
        "notice": "Version of the contract"
      },
      "addStakingToken(address)": {
        "notice": "Allowed contracts can whitelist token. Removing is forbidden."
      },
      "controller()": {
        "notice": "Return controller address saved in the contract slot"
      },
      "created()": {
        "notice": "Return creation timestamp"
      },
      "createdBlock()": {
        "notice": "Return creation block number"
      },
      "isGovernance(address)": {
        "notice": "Return true if given address is setup as governance in Controller"
      },
      "rewardsRedirect(address)": {
        "notice": "account => recipient. All rewards for this account will receive recipient"
      },
      "updatePeriod(uint256)": {
        "notice": "Update active period. Can be called only once per week. Call IXMyrd.rebase()"
      }
    },
    "version": 1
  },
  "storageLayout": {
    "storage": [
      {
        "astId": 17082,
        "contract": "contracts/core/MultiGauge.sol:MultiGauge",
        "label": "_status",
        "offset": 0,
        "slot": "0",
        "type": "t_uint256"
      },
      {
        "astId": 8122,
        "contract": "contracts/core/MultiGauge.sol:MultiGauge",
        "label": "duration",
        "offset": 0,
        "slot": "1",
        "type": "t_uint256"
      },
      {
        "astId": 8125,
        "contract": "contracts/core/MultiGauge.sol:MultiGauge",
        "label": "defaultRewardToken",
        "offset": 0,
        "slot": "2",
        "type": "t_address"
      },
      {
        "astId": 8131,
        "contract": "contracts/core/MultiGauge.sol:MultiGauge",
        "label": "derivedSupply",
        "offset": 0,
        "slot": "3",
        "type": "t_mapping(t_address,t_uint256)"
      },
      {
        "astId": 8139,
        "contract": "contracts/core/MultiGauge.sol:MultiGauge",
        "label": "derivedBalances",
        "offset": 0,
        "slot": "4",
        "type": "t_mapping(t_address,t_mapping(t_address,t_uint256))"
      },
      {
        "astId": 8147,
        "contract": "contracts/core/MultiGauge.sol:MultiGauge",
        "label": "balanceOf",
        "offset": 0,
        "slot": "5",
        "type": "t_mapping(t_address,t_mapping(t_address,t_uint256))"
      },
      {
        "astId": 8153,
        "contract": "contracts/core/MultiGauge.sol:MultiGauge",
        "label": "totalSupply",
        "offset": 0,
        "slot": "6",
        "type": "t_mapping(t_address,t_uint256)"
      },
      {
        "astId": 8160,
        "contract": "contracts/core/MultiGauge.sol:MultiGauge",
        "label": "rewardRate",
        "offset": 0,
        "slot": "7",
        "type": "t_mapping(t_address,t_mapping(t_address,t_uint256))"
      },
      {
        "astId": 8167,
        "contract": "contracts/core/MultiGauge.sol:MultiGauge",
        "label": "periodFinish",
        "offset": 0,
        "slot": "8",
        "type": "t_mapping(t_address,t_mapping(t_address,t_uint256))"
      },
      {
        "astId": 8174,
        "contract": "contracts/core/MultiGauge.sol:MultiGauge",
        "label": "lastUpdateTime",
        "offset": 0,
        "slot": "9",
        "type": "t_mapping(t_address,t_mapping(t_address,t_uint256))"
      },
      {
        "astId": 8181,
        "contract": "contracts/core/MultiGauge.sol:MultiGauge",
        "label": "rewardPerTokenStored",
        "offset": 0,
        "slot": "10",
        "type": "t_mapping(t_address,t_mapping(t_address,t_uint256))"
      },
      {
        "astId": 8190,
        "contract": "contracts/core/MultiGauge.sol:MultiGauge",
        "label": "userRewardPerTokenPaid",
        "offset": 0,
        "slot": "11",
        "type": "t_mapping(t_address,t_mapping(t_address,t_mapping(t_address,t_uint256)))"
      },
      {
        "astId": 8199,
        "contract": "contracts/core/MultiGauge.sol:MultiGauge",
        "label": "rewards",
        "offset": 0,
        "slot": "12",
        "type": "t_mapping(t_address,t_mapping(t_address,t_mapping(t_address,t_uint256)))"
      },
      {
        "astId": 8206,
        "contract": "contracts/core/MultiGauge.sol:MultiGauge",
        "label": "rewardTokens",
        "offset": 0,
        "slot": "13",
        "type": "t_mapping(t_address,t_array(t_address)dyn_storage)"
      },
      {
        "astId": 8214,
        "contract": "contracts/core/MultiGauge.sol:MultiGauge",
        "label": "isRewardToken",
        "offset": 0,
        "slot": "14",
        "type": "t_mapping(t_address,t_mapping(t_address,t_bool))"
      },
      {
        "astId": 8219,
        "contract": "contracts/core/MultiGauge.sol:MultiGauge",
        "label": "rewardsRedirect",
        "offset": 0,
        "slot": "15",
        "type": "t_mapping(t_address,t_address)"
      },
      {
        "astId": 9304,
        "contract": "contracts/core/MultiGauge.sol:MultiGauge",
        "label": "__gap",
        "offset": 0,
        "slot": "16",
        "type": "t_array(t_uint256)38_storage"
      }
    ],
    "types": {
      "t_address": {
        "encoding": "inplace",
        "label": "address",
        "numberOfBytes": "20"
      },
      "t_array(t_address)dyn_storage": {
        "base": "t_address",
        "encoding": "dynamic_array",
        "label": "address[]",
        "numberOfBytes": "32"
      },
      "t_array(t_uint256)38_storage": {
        "base": "t_uint256",
        "encoding": "inplace",
        "label": "uint256[38]",
        "numberOfBytes": "1216"
      },
      "t_bool": {
        "encoding": "inplace",
        "label": "bool",
        "numberOfBytes": "1"
      },
      "t_mapping(t_address,t_address)": {
        "encoding": "mapping",
        "key": "t_address",
        "label": "mapping(address => address)",
        "numberOfBytes": "32",
        "value": "t_address"
      },
      "t_mapping(t_address,t_array(t_address)dyn_storage)": {
        "encoding": "mapping",
        "key": "t_address",
        "label": "mapping(address => address[])",
        "numberOfBytes": "32",
        "value": "t_array(t_address)dyn_storage"
      },
      "t_mapping(t_address,t_bool)": {
        "encoding": "mapping",
        "key": "t_address",
        "label": "mapping(address => bool)",
        "numberOfBytes": "32",
        "value": "t_bool"
      },
      "t_mapping(t_address,t_mapping(t_address,t_bool))": {
        "encoding": "mapping",
        "key": "t_address",
        "label": "mapping(address => mapping(address => bool))",
        "numberOfBytes": "32",
        "value": "t_mapping(t_address,t_bool)"
      },
      "t_mapping(t_address,t_mapping(t_address,t_mapping(t_address,t_uint256)))": {
        "encoding": "mapping",
        "key": "t_address",
        "label": "mapping(address => mapping(address => mapping(address => uint256)))",
        "numberOfBytes": "32",
        "value": "t_mapping(t_address,t_mapping(t_address,t_uint256))"
      },
      "t_mapping(t_address,t_mapping(t_address,t_uint256))": {
        "encoding": "mapping",
        "key": "t_address",
        "label": "mapping(address => mapping(address => uint256))",
        "numberOfBytes": "32",
        "value": "t_mapping(t_address,t_uint256)"
      },
      "t_mapping(t_address,t_uint256)": {
        "encoding": "mapping",
        "key": "t_address",
        "label": "mapping(address => uint256)",
        "numberOfBytes": "32",
        "value": "t_uint256"
      },
      "t_uint256": {
        "encoding": "inplace",
        "label": "uint256",
        "numberOfBytes": "32"
      }
    }
  }
}