{
  "address": "0x9C0C9a4396229073341101CEfA0a4dd57b5fa8c4",
  "abi": [
    {
      "inputs": [
        {
          "internalType": "uint256",
          "name": "_vestingPeriod",
          "type": "uint256"
        },
        {
          "internalType": "uint256",
          "name": "_cliffPeriod",
          "type": "uint256"
        },
        {
          "internalType": "uint256",
          "name": "_tgePercent",
          "type": "uint256"
        }
      ],
      "stateMutability": "nonpayable",
      "type": "constructor"
    },
    {
      "inputs": [],
      "name": "ReentrancyGuardReentrantCall",
      "type": "error"
    },
    {
      "anonymous": false,
      "inputs": [
        {
          "indexed": false,
          "internalType": "address",
          "name": "claimer",
          "type": "address"
        },
        {
          "indexed": false,
          "internalType": "uint256",
          "name": "amount",
          "type": "uint256"
        }
      ],
      "name": "Claimed",
      "type": "event"
    },
    {
      "anonymous": false,
      "inputs": [
        {
          "indexed": false,
          "internalType": "uint256",
          "name": "vestingPeriod",
          "type": "uint256"
        },
        {
          "indexed": false,
          "internalType": "uint256",
          "name": "cliffPeriod",
          "type": "uint256"
        },
        {
          "indexed": false,
          "internalType": "uint256",
          "name": "tgePercent",
          "type": "uint256"
        }
      ],
      "name": "Created",
      "type": "event"
    },
    {
      "anonymous": false,
      "inputs": [
        {
          "indexed": false,
          "internalType": "address",
          "name": "token",
          "type": "address"
        },
        {
          "indexed": false,
          "internalType": "uint256",
          "name": "totalAmount",
          "type": "uint256"
        },
        {
          "indexed": false,
          "internalType": "uint256",
          "name": "time",
          "type": "uint256"
        },
        {
          "indexed": false,
          "internalType": "address[]",
          "name": "claimants",
          "type": "address[]"
        },
        {
          "indexed": false,
          "internalType": "uint256[]",
          "name": "amounts",
          "type": "uint256[]"
        }
      ],
      "name": "Started",
      "type": "event"
    },
    {
      "inputs": [],
      "name": "claim",
      "outputs": [],
      "stateMutability": "nonpayable",
      "type": "function"
    },
    {
      "inputs": [],
      "name": "cliffPeriod",
      "outputs": [
        {
          "internalType": "uint256",
          "name": "",
          "type": "uint256"
        }
      ],
      "stateMutability": "view",
      "type": "function"
    },
    {
      "inputs": [
        {
          "internalType": "address",
          "name": "",
          "type": "address"
        }
      ],
      "name": "extraAmounts",
      "outputs": [
        {
          "internalType": "uint256",
          "name": "",
          "type": "uint256"
        }
      ],
      "stateMutability": "view",
      "type": "function"
    },
    {
      "inputs": [
        {
          "internalType": "address",
          "name": "",
          "type": "address"
        }
      ],
      "name": "lastVestedClaim",
      "outputs": [
        {
          "internalType": "bytes32",
          "name": "",
          "type": "bytes32"
        }
      ],
      "stateMutability": "view",
      "type": "function"
    },
    {
      "inputs": [
        {
          "internalType": "bool",
          "name": "useTokensOnBalance",
          "type": "bool"
        },
        {
          "internalType": "address",
          "name": "_token",
          "type": "address"
        },
        {
          "internalType": "uint256",
          "name": "totalAmount",
          "type": "uint256"
        },
        {
          "internalType": "address[]",
          "name": "claimants",
          "type": "address[]"
        },
        {
          "internalType": "uint256[]",
          "name": "amounts",
          "type": "uint256[]"
        }
      ],
      "name": "start",
      "outputs": [],
      "stateMutability": "nonpayable",
      "type": "function"
    },
    {
      "inputs": [
        {
          "internalType": "address",
          "name": "",
          "type": "address"
        }
      ],
      "name": "tgeClaimed",
      "outputs": [
        {
          "internalType": "bool",
          "name": "",
          "type": "bool"
        }
      ],
      "stateMutability": "view",
      "type": "function"
    },
    {
      "inputs": [],
      "name": "tgePercent",
      "outputs": [
        {
          "internalType": "uint256",
          "name": "",
          "type": "uint256"
        }
      ],
      "stateMutability": "view",
      "type": "function"
    },
    {
      "inputs": [
        {
          "internalType": "address",
          "name": "claimant",
          "type": "address"
        }
      ],
      "name": "toClaim",
      "outputs": [
        {
          "internalType": "uint256",
          "name": "amount",
          "type": "uint256"
        },
        {
          "internalType": "uint256",
          "name": "_lastVestedClaimTs",
          "type": "uint256"
        },
        {
          "internalType": "uint256",
          "name": "extraAmount",
          "type": "uint256"
        },
        {
          "internalType": "uint256",
          "name": "amountVestingToClaim",
          "type": "uint256"
        },
        {
          "internalType": "uint256",
          "name": "claimedVestingAmount",
          "type": "uint256"
        }
      ],
      "stateMutability": "view",
      "type": "function"
    },
    {
      "inputs": [
        {
          "internalType": "address",
          "name": "",
          "type": "address"
        }
      ],
      "name": "toDistribute",
      "outputs": [
        {
          "internalType": "uint256",
          "name": "",
          "type": "uint256"
        }
      ],
      "stateMutability": "view",
      "type": "function"
    },
    {
      "inputs": [],
      "name": "token",
      "outputs": [
        {
          "internalType": "contract IERC20",
          "name": "",
          "type": "address"
        }
      ],
      "stateMutability": "view",
      "type": "function"
    },
    {
      "inputs": [
        {
          "internalType": "bytes32",
          "name": "data",
          "type": "bytes32"
        }
      ],
      "name": "unpackLastVestedData",
      "outputs": [
        {
          "internalType": "uint64",
          "name": "lastVestedClaimTs",
          "type": "uint64"
        },
        {
          "internalType": "uint256",
          "name": "claimedVestingAmount",
          "type": "uint256"
        }
      ],
      "stateMutability": "pure",
      "type": "function"
    },
    {
      "inputs": [],
      "name": "vestingPeriod",
      "outputs": [
        {
          "internalType": "uint256",
          "name": "",
          "type": "uint256"
        }
      ],
      "stateMutability": "view",
      "type": "function"
    },
    {
      "inputs": [],
      "name": "vestingStartTs",
      "outputs": [
        {
          "internalType": "uint256",
          "name": "",
          "type": "uint256"
        }
      ],
      "stateMutability": "view",
      "type": "function"
    }
  ],
  "transactionHash": "0xdb29d6b0bc2d5fe15c28df301a93ad557d40f3dd7c7189bcb2b3519125ff8cfc",
  "args": [
    110332800,
    0,
    0
  ],
  "numDeployments": 1,
  "solcInputHash": "c58a764a72eaf5c3059cf0b59a44410a",
  "bytecode": "0x60e060405234801561001057600080fd5b50604051610fe1380380610fe183398101604081905261002f9161010c565b6001600055826100755760405162461bcd60e51b815260206004820152600c60248201526b5a65726f2076657374696e6760a01b60448201526064015b60405180910390fd5b606481106100b45760405162461bcd60e51b815260206004820152600c60248201526b546f6f206d7563682054474560a01b604482015260640161006c565b608083905260a082905260c081905260408051848152602081018490529081018290527f22615617f04f2947d859f9a342fa4f3cd380f106367d8b2f00ef4209843c74c89060600160405180910390a150505061013a565b60008060006060848603121561012157600080fd5b8351925060208401519150604084015190509250925092565b60805160a05160c051610e5561018c6000396000818161021a015261093201526000818161011a015261038b01526000818161016901528181610899015281816108ce01526109df0152610e556000f3fe608060405234801561001057600080fd5b50600436106100bf5760003560e01c80637313ee5a1161007c5780637313ee5a14610164578063776dffc81461018b5780637c352e36146101c2578063be68d17a146101e2578063e2f0f42d14610215578063fc0c546a1461023c578063fe812d621461026757600080fd5b806309208a53146100c4578063094cc0db146100d95780630f93bcac1461010c5780632f661946146101155780634e71d92d1461013c578063588fbde114610144575b600080fd5b6100d76100d2366004610be4565b6102a2565b005b6100f96100e7366004610c81565b60066020526000908152604090205481565b6040519081526020015b60405180910390f35b6100f960025481565b6100f97f000000000000000000000000000000000000000000000000000000000000000081565b6100d7610684565b6100f9610152366004610c81565b60046020526000908152604090205481565b6100f97f000000000000000000000000000000000000000000000000000000000000000081565b6101a2610199366004610ca3565b90604082901c90565b6040805167ffffffffffffffff9093168352602083019190915201610103565b6100f96101d0366004610c81565b60036020526000908152604090205481565b6102056101f0366004610c81565b60056020526000908152604090205460ff1681565b6040519015158152602001610103565b6100f97f000000000000000000000000000000000000000000000000000000000000000081565b60015461024f906001600160a01b031681565b6040516001600160a01b039091168152602001610103565b61027a610275366004610c81565b610839565b604080519586526020860194909452928401919091526060830152608082015260a001610103565b600254156102e95760405162461bcd60e51b815260206004820152600f60248201526e105b1c9958591e481cdd185c9d1959608a1b60448201526064015b60405180910390fd5b6001600160a01b03861661032e5760405162461bcd60e51b815260206004820152600c60248201526b5a65726f206164647265737360a01b60448201526064016102e0565b82811461036b5760405162461bcd60e51b815260206004820152600b60248201526a15dc9bdb99c81a5b9c1d5d60aa1b60448201526064016102e0565b600180546001600160a01b0319166001600160a01b0388161790556103b07f000000000000000000000000000000000000000000000000000000000000000042610cd2565b6002556000805b848110156104c05760008686838181106103d3576103d3610ceb565b90506020020160208101906103e89190610c81565b905060008585848181106103fe576103fe610ceb565b60200291909101359150506001600160a01b03821661044e5760405162461bcd60e51b815260206004820152600c60248201526b5a65726f206164647265737360a01b60448201526064016102e0565b6000811161048c5760405162461bcd60e51b815260206004820152600b60248201526a16995c9bc8185b5bdd5b9d60aa1b60448201526064016102e0565b6001600160a01b03821660009081526003602052604090208190556104b18185610cd2565b935050508060010190506103b7565b508581146105055760405162461bcd60e51b815260206004820152601260248201527115dc9bdb99c81d1bdd185b08185b5bdd5b9d60721b60448201526064016102e0565b87156105be576001546040516370a0823160e01b815230600482015287916001600160a01b0316906370a0823190602401602060405180830381865afa158015610553573d6000803e3d6000fd5b505050506040513d601f19601f820116820180604052508101906105779190610d01565b10156105b95760405162461bcd60e51b81526020600482015260116024820152704e6f7420656e6f75676820746f6b656e7360781b60448201526064016102e0565b610637565b6040516323b872dd60e01b8152336004820152306024820152604481018790526001600160a01b038816906323b872dd906064016020604051808303816000875af1158015610611573d6000803e3d6000fd5b505050506040513d601f19601f820116820180604052508101906106359190610d1a565b505b7f93667d3045dc5148834d8d44b2312efbc93ca8c13a080251f1d08234a61bc734878742888888886040516106729796959493929190610d37565b60405180910390a15050505050505050565b61068c610abf565b600080600080600061069d33610839565b94509450945094509450836000036106e55760405162461bcd60e51b815260206004820152600b60248201526a139bdd081cdd185c9d195960aa1b60448201526064016102e0565b846000036107285760405162461bcd60e51b815260206004820152601060248201526f4e6f7468696e6720746f20636c61696d60801b60448201526064016102e0565b428410156107705761075f4261073e8484610cd2565b67ffffffffffffffff1960409190911b1667ffffffffffffffff9091161790565b336000908152600460205260409020555b3360009081526005602052604090205460ff166107a257336000908152600560205260409020805460ff191660011790555b82156107b957336000908152600660205260408120555b6001546000906107d3906001600160a01b03168733610ae9565b905080156107ee573360009081526006602052604090208190555b60408051338152602081018890527fd8138f8a3f377c5259ca548e70e4c2de94f129f5a11036a15b69513cba2b426a910160405180910390a15050505050506108376001600055565b565b6002546001600160a01b038216600090815260046020526040812054909182918291829182919061086b604082901c90565b67ffffffffffffffff9091169550915084156108875784610889565b805b94508415610ab5576000426108be7f000000000000000000000000000000000000000000000000000000000000000084610cd2565b106108c957426108f3565b6108f37f000000000000000000000000000000000000000000000000000000000000000083610cd2565b9050600081871061090557600061090f565b61090f8783610dd3565b6001600160a01b038a1660009081526003602052604081205491925060646109577f000000000000000000000000000000000000000000000000000000000000000084610de6565b6109619190610dfd565b9050600061096f8284610dd3565b6001600160a01b038d1660009081526005602052604090205490915060ff16610998578161099b565b60005b6001600160a01b038d1660009081526006602052604090205499509150428510156109dd578681116109ce576000610a12565b6109d88782610dd3565b610a12565b7f0000000000000000000000000000000000000000000000000000000000000000610a088286610de6565b610a129190610dfd565b975088610a1f838a610cd2565b610a299190610cd2565b6001546040516370a0823160e01b8152306004820152919c506000916001600160a01b03909116906370a0823190602401602060405180830381865afa158015610a77573d6000803e3d6000fd5b505050506040513d601f19601f82011682018060405250810190610a9b9190610d01565b90508b8110610aaa578b610aac565b805b9b505050505050505b5091939590929450565b600260005403610ae257604051633ee5aeb560e01b815260040160405180910390fd5b6002600055565b60405163a9059cbb60e01b81526001600160a01b038281166004830152602482018490526000919085169063a9059cbb906044016020604051808303816000875af1158015610b3c573d6000803e3d6000fd5b505050506040513d601f19601f82011682018060405250810190610b609190610d1a565b506000949350505050565b8015158114610b7957600080fd5b50565b80356001600160a01b0381168114610b9357600080fd5b919050565b60008083601f840112610baa57600080fd5b50813567ffffffffffffffff811115610bc257600080fd5b6020830191508360208260051b8501011115610bdd57600080fd5b9250929050565b600080600080600080600060a0888a031215610bff57600080fd5b8735610c0a81610b6b565b9650610c1860208901610b7c565b955060408801359450606088013567ffffffffffffffff80821115610c3c57600080fd5b610c488b838c01610b98565b909650945060808a0135915080821115610c6157600080fd5b50610c6e8a828b01610b98565b989b979a50959850939692959293505050565b600060208284031215610c9357600080fd5b610c9c82610b7c565b9392505050565b600060208284031215610cb557600080fd5b5035919050565b634e487b7160e01b600052601160045260246000fd5b80820180821115610ce557610ce5610cbc565b92915050565b634e487b7160e01b600052603260045260246000fd5b600060208284031215610d1357600080fd5b5051919050565b600060208284031215610d2c57600080fd5b8151610c9c81610b6b565b6001600160a01b03888116825260208083018990526040830188905260a0606084018190528301869052600091879160c08501845b89811015610d915783610d7e86610b7c565b1682529382019390820190600101610d6c565b5085810360808701528681526001600160fb1b03871115610db157600080fd5b8660051b9350838860208301379092016020019b9a5050505050505050505050565b81810381811115610ce557610ce5610cbc565b8082028115828204841417610ce557610ce5610cbc565b600082610e1a57634e487b7160e01b600052601260045260246000fd5b50049056fea2646970667358221220e97c3ea22f1292f055e96b8c14cd8399ebb6fddd8d16ecaf6669bf18a2c4f52564736f6c63430008170033",
  "devdoc": {
    "errors": {
      "ReentrancyGuardReentrantCall()": [
        {
          "details": "Unauthorized reentrant call."
        }
      ]
    },
    "kind": "dev",
    "methods": {
      "toClaim(address)": {
        "params": {
          "claimant": "Address of the claimant"
        },
        "returns": {
          "_lastVestedClaimTs": "Timestamp of the last vested claim",
          "amount": "Total amount claimable at current moment",
          "amountVestingToClaim": "The amount of vesting that will be credited as claimed during the next claim call",
          "claimedVestingAmount": "The amount of vesting that is currently considered claimed",
          "extraAmount": "Extra amount that can be claimed (it's included to {amount})"
        }
      }
    },
    "stateVariables": {
      "cliffPeriod": {
        "details": "Delay before the vesting"
      },
      "extraAmounts": {
        "details": "if for some reason claimant did not claim all tokens it recorded in this map for make possible to claim it later"
      },
      "lastVestedClaim": {
        "details": "Use unpackLastVestedData to decode"
      },
      "tgeClaimed": {
        "details": "Claimant => TGE claimed indicator"
      },
      "tgePercent": {
        "details": "Percent of TGE, no decimals"
      },
      "toDistribute": {
        "details": "Claimant => whole amount for distribution"
      },
      "token": {
        "details": "Token for vesting"
      },
      "vestingPeriod": {
        "details": "Will start after the cliff"
      },
      "vestingStartTs": {
        "details": "Start of vesting"
      }
    },
    "title": "Vesting contract for token distribution",
    "version": 1
  },
  "userdoc": {
    "kind": "user",
    "methods": {
      "lastVestedClaim(address)": {
        "notice": "Claimant => [last claimed timestamp, claimed vesting amount]"
      },
      "toClaim(address)": {
        "notice": "Returns the claimable amount for a given claimant"
      }
    },
    "version": 1
  },
  "storageLayout": {
    "storage": [
      {
        "astId": 1228,
        "contract": "contracts/token/Vesting.sol:Vesting",
        "label": "_status",
        "offset": 0,
        "slot": "0",
        "type": "t_uint256"
      },
      {
        "astId": 5046,
        "contract": "contracts/token/Vesting.sol:Vesting",
        "label": "token",
        "offset": 0,
        "slot": "1",
        "type": "t_contract(IERC20)754"
      },
      {
        "astId": 5049,
        "contract": "contracts/token/Vesting.sol:Vesting",
        "label": "vestingStartTs",
        "offset": 0,
        "slot": "2",
        "type": "t_uint256"
      },
      {
        "astId": 5054,
        "contract": "contracts/token/Vesting.sol:Vesting",
        "label": "toDistribute",
        "offset": 0,
        "slot": "3",
        "type": "t_mapping(t_address,t_uint256)"
      },
      {
        "astId": 5059,
        "contract": "contracts/token/Vesting.sol:Vesting",
        "label": "lastVestedClaim",
        "offset": 0,
        "slot": "4",
        "type": "t_mapping(t_address,t_bytes32)"
      },
      {
        "astId": 5064,
        "contract": "contracts/token/Vesting.sol:Vesting",
        "label": "tgeClaimed",
        "offset": 0,
        "slot": "5",
        "type": "t_mapping(t_address,t_bool)"
      },
      {
        "astId": 5069,
        "contract": "contracts/token/Vesting.sol:Vesting",
        "label": "extraAmounts",
        "offset": 0,
        "slot": "6",
        "type": "t_mapping(t_address,t_uint256)"
      }
    ],
    "types": {
      "t_address": {
        "encoding": "inplace",
        "label": "address",
        "numberOfBytes": "20"
      },
      "t_bool": {
        "encoding": "inplace",
        "label": "bool",
        "numberOfBytes": "1"
      },
      "t_bytes32": {
        "encoding": "inplace",
        "label": "bytes32",
        "numberOfBytes": "32"
      },
      "t_contract(IERC20)754": {
        "encoding": "inplace",
        "label": "contract IERC20",
        "numberOfBytes": "20"
      },
      "t_mapping(t_address,t_bool)": {
        "encoding": "mapping",
        "key": "t_address",
        "label": "mapping(address => bool)",
        "numberOfBytes": "32",
        "value": "t_bool"
      },
      "t_mapping(t_address,t_bytes32)": {
        "encoding": "mapping",
        "key": "t_address",
        "label": "mapping(address => bytes32)",
        "numberOfBytes": "32",
        "value": "t_bytes32"
      },
      "t_mapping(t_address,t_uint256)": {
        "encoding": "mapping",
        "key": "t_address",
        "label": "mapping(address => uint256)",
        "numberOfBytes": "32",
        "value": "t_uint256"
      },
      "t_uint256": {
        "encoding": "inplace",
        "label": "uint256",
        "numberOfBytes": "32"
      }
    }
  }
}