{
  "address": "0xF4eF5f171E61C5C196f0d8e2b80A96aC238C2572",
  "abi": [
    {
      "inputs": [
        {
          "internalType": "address",
          "name": "spender",
          "type": "address"
        },
        {
          "internalType": "uint256",
          "name": "allowance",
          "type": "uint256"
        },
        {
          "internalType": "uint256",
          "name": "needed",
          "type": "uint256"
        }
      ],
      "name": "ERC20InsufficientAllowance",
      "type": "error"
    },
    {
      "inputs": [
        {
          "internalType": "address",
          "name": "sender",
          "type": "address"
        },
        {
          "internalType": "uint256",
          "name": "balance",
          "type": "uint256"
        },
        {
          "internalType": "uint256",
          "name": "needed",
          "type": "uint256"
        }
      ],
      "name": "ERC20InsufficientBalance",
      "type": "error"
    },
    {
      "inputs": [
        {
          "internalType": "address",
          "name": "approver",
          "type": "address"
        }
      ],
      "name": "ERC20InvalidApprover",
      "type": "error"
    },
    {
      "inputs": [
        {
          "internalType": "address",
          "name": "receiver",
          "type": "address"
        }
      ],
      "name": "ERC20InvalidReceiver",
      "type": "error"
    },
    {
      "inputs": [
        {
          "internalType": "address",
          "name": "sender",
          "type": "address"
        }
      ],
      "name": "ERC20InvalidSender",
      "type": "error"
    },
    {
      "inputs": [
        {
          "internalType": "address",
          "name": "spender",
          "type": "address"
        }
      ],
      "name": "ERC20InvalidSpender",
      "type": "error"
    },
    {
      "inputs": [],
      "name": "IncorrectArrayLength",
      "type": "error"
    },
    {
      "inputs": [],
      "name": "IncorrectZeroAddress",
      "type": "error"
    },
    {
      "inputs": [],
      "name": "IncorrectZeroArgument",
      "type": "error"
    },
    {
      "inputs": [],
      "name": "InvalidInitialization",
      "type": "error"
    },
    {
      "inputs": [
        {
          "internalType": "address",
          "name": "from",
          "type": "address"
        },
        {
          "internalType": "address",
          "name": "to",
          "type": "address"
        }
      ],
      "name": "NOT_WHITELISTED",
      "type": "error"
    },
    {
      "inputs": [],
      "name": "NO_VEST",
      "type": "error"
    },
    {
      "inputs": [],
      "name": "NotGauge",
      "type": "error"
    },
    {
      "inputs": [],
      "name": "NotGovernance",
      "type": "error"
    },
    {
      "inputs": [],
      "name": "NotInitializing",
      "type": "error"
    },
    {
      "anonymous": false,
      "inputs": [
        {
          "indexed": true,
          "internalType": "address",
          "name": "owner",
          "type": "address"
        },
        {
          "indexed": true,
          "internalType": "address",
          "name": "spender",
          "type": "address"
        },
        {
          "indexed": false,
          "internalType": "uint256",
          "name": "value",
          "type": "uint256"
        }
      ],
      "name": "Approval",
      "type": "event"
    },
    {
      "anonymous": false,
      "inputs": [
        {
          "indexed": true,
          "internalType": "address",
          "name": "user",
          "type": "address"
        },
        {
          "indexed": true,
          "internalType": "uint256",
          "name": "vestId",
          "type": "uint256"
        },
        {
          "indexed": false,
          "internalType": "uint256",
          "name": "amount",
          "type": "uint256"
        }
      ],
      "name": "CancelVesting",
      "type": "event"
    },
    {
      "anonymous": false,
      "inputs": [
        {
          "indexed": false,
          "internalType": "address",
          "name": "controller",
          "type": "address"
        },
        {
          "indexed": false,
          "internalType": "uint256",
          "name": "ts",
          "type": "uint256"
        },
        {
          "indexed": false,
          "internalType": "uint256",
          "name": "block",
          "type": "uint256"
        }
      ],
      "name": "ContractInitialized",
      "type": "event"
    },
    {
      "anonymous": false,
      "inputs": [
        {
          "indexed": true,
          "internalType": "address",
          "name": "user",
          "type": "address"
        },
        {
          "indexed": false,
          "internalType": "uint256",
          "name": "amount",
          "type": "uint256"
        }
      ],
      "name": "Enter",
      "type": "event"
    },
    {
      "anonymous": false,
      "inputs": [
        {
          "indexed": true,
          "internalType": "address",
          "name": "candidate",
          "type": "address"
        },
        {
          "indexed": false,
          "internalType": "bool",
          "name": "status",
          "type": "bool"
        },
        {
          "indexed": false,
          "internalType": "bool",
          "name": "success",
          "type": "bool"
        }
      ],
      "name": "ExemptionFrom",
      "type": "event"
    },
    {
      "anonymous": false,
      "inputs": [
        {
          "indexed": true,
          "internalType": "address",
          "name": "candidate",
          "type": "address"
        },
        {
          "indexed": false,
          "internalType": "bool",
          "name": "status",
          "type": "bool"
        },
        {
          "indexed": false,
          "internalType": "bool",
          "name": "success",
          "type": "bool"
        }
      ],
      "name": "ExemptionTo",
      "type": "event"
    },
    {
      "anonymous": false,
      "inputs": [
        {
          "indexed": true,
          "internalType": "address",
          "name": "user",
          "type": "address"
        },
        {
          "indexed": true,
          "internalType": "uint256",
          "name": "vestId",
          "type": "uint256"
        },
        {
          "indexed": false,
          "internalType": "uint256",
          "name": "totalAmount",
          "type": "uint256"
        },
        {
          "indexed": false,
          "internalType": "uint256",
          "name": "exitedAmount",
          "type": "uint256"
        }
      ],
      "name": "ExitVesting",
      "type": "event"
    },
    {
      "anonymous": false,
      "inputs": [
        {
          "indexed": false,
          "internalType": "uint64",
          "name": "version",
          "type": "uint64"
        }
      ],
      "name": "Initialized",
      "type": "event"
    },
    {
      "anonymous": false,
      "inputs": [
        {
          "indexed": true,
          "internalType": "address",
          "name": "user",
          "type": "address"
        },
        {
          "indexed": false,
          "internalType": "uint256",
          "name": "exitAmount",
          "type": "uint256"
        }
      ],
      "name": "InstantExit",
      "type": "event"
    },
    {
      "anonymous": false,
      "inputs": [
        {
          "indexed": true,
          "internalType": "address",
          "name": "user",
          "type": "address"
        },
        {
          "indexed": true,
          "internalType": "uint256",
          "name": "vestId",
          "type": "uint256"
        },
        {
          "indexed": false,
          "internalType": "uint256",
          "name": "amount",
          "type": "uint256"
        }
      ],
      "name": "NewVest",
      "type": "event"
    },
    {
      "anonymous": false,
      "inputs": [
        {
          "indexed": true,
          "internalType": "address",
          "name": "caller",
          "type": "address"
        },
        {
          "indexed": false,
          "internalType": "uint256",
          "name": "amount",
          "type": "uint256"
        }
      ],
      "name": "Rebase",
      "type": "event"
    },
    {
      "anonymous": false,
      "inputs": [
        {
          "indexed": false,
          "internalType": "uint256",
          "name": "value",
          "type": "uint256"
        },
        {
          "indexed": false,
          "internalType": "address",
          "name": "oldLogic",
          "type": "address"
        }
      ],
      "name": "RevisionIncreased",
      "type": "event"
    },
    {
      "anonymous": false,
      "inputs": [
        {
          "indexed": true,
          "internalType": "address",
          "name": "from",
          "type": "address"
        },
        {
          "indexed": true,
          "internalType": "address",
          "name": "to",
          "type": "address"
        },
        {
          "indexed": false,
          "internalType": "uint256",
          "name": "value",
          "type": "uint256"
        }
      ],
      "name": "Transfer",
      "type": "event"
    },
    {
      "inputs": [],
      "name": "BASIS",
      "outputs": [
        {
          "internalType": "uint256",
          "name": "",
          "type": "uint256"
        }
      ],
      "stateMutability": "view",
      "type": "function"
    },
    {
      "inputs": [],
      "name": "CONTROLLABLE_VERSION",
      "outputs": [
        {
          "internalType": "string",
          "name": "",
          "type": "string"
        }
      ],
      "stateMutability": "view",
      "type": "function"
    },
    {
      "inputs": [],
      "name": "MAX_VEST",
      "outputs": [
        {
          "internalType": "uint256",
          "name": "",
          "type": "uint256"
        }
      ],
      "stateMutability": "view",
      "type": "function"
    },
    {
      "inputs": [],
      "name": "MIN_VEST",
      "outputs": [
        {
          "internalType": "uint256",
          "name": "",
          "type": "uint256"
        }
      ],
      "stateMutability": "view",
      "type": "function"
    },
    {
      "inputs": [],
      "name": "SLASHING_PENALTY",
      "outputs": [
        {
          "internalType": "uint256",
          "name": "",
          "type": "uint256"
        }
      ],
      "stateMutability": "view",
      "type": "function"
    },
    {
      "inputs": [],
      "name": "VERSION",
      "outputs": [
        {
          "internalType": "string",
          "name": "",
          "type": "string"
        }
      ],
      "stateMutability": "view",
      "type": "function"
    },
    {
      "inputs": [
        {
          "internalType": "address",
          "name": "owner",
          "type": "address"
        },
        {
          "internalType": "address",
          "name": "spender",
          "type": "address"
        }
      ],
      "name": "allowance",
      "outputs": [
        {
          "internalType": "uint256",
          "name": "",
          "type": "uint256"
        }
      ],
      "stateMutability": "view",
      "type": "function"
    },
    {
      "inputs": [
        {
          "internalType": "address",
          "name": "spender",
          "type": "address"
        },
        {
          "internalType": "uint256",
          "name": "value",
          "type": "uint256"
        }
      ],
      "name": "approve",
      "outputs": [
        {
          "internalType": "bool",
          "name": "",
          "type": "bool"
        }
      ],
      "stateMutability": "nonpayable",
      "type": "function"
    },
    {
      "inputs": [
        {
          "internalType": "address",
          "name": "account",
          "type": "address"
        }
      ],
      "name": "balanceOf",
      "outputs": [
        {
          "internalType": "uint256",
          "name": "",
          "type": "uint256"
        }
      ],
      "stateMutability": "view",
      "type": "function"
    },
    {
      "inputs": [],
      "name": "controller",
      "outputs": [
        {
          "internalType": "address",
          "name": "",
          "type": "address"
        }
      ],
      "stateMutability": "view",
      "type": "function"
    },
    {
      "inputs": [
        {
          "internalType": "uint256",
          "name": "amount_",
          "type": "uint256"
        }
      ],
      "name": "createVest",
      "outputs": [],
      "stateMutability": "nonpayable",
      "type": "function"
    },
    {
      "inputs": [],
      "name": "created",
      "outputs": [
        {
          "internalType": "uint256",
          "name": "",
          "type": "uint256"
        }
      ],
      "stateMutability": "view",
      "type": "function"
    },
    {
      "inputs": [],
      "name": "createdBlock",
      "outputs": [
        {
          "internalType": "uint256",
          "name": "",
          "type": "uint256"
        }
      ],
      "stateMutability": "view",
      "type": "function"
    },
    {
      "inputs": [],
      "name": "decimals",
      "outputs": [
        {
          "internalType": "uint8",
          "name": "",
          "type": "uint8"
        }
      ],
      "stateMutability": "view",
      "type": "function"
    },
    {
      "inputs": [
        {
          "internalType": "uint256",
          "name": "amount_",
          "type": "uint256"
        }
      ],
      "name": "enter",
      "outputs": [],
      "stateMutability": "nonpayable",
      "type": "function"
    },
    {
      "inputs": [
        {
          "internalType": "uint256",
          "name": "amount_",
          "type": "uint256"
        },
        {
          "internalType": "address",
          "name": "receiver",
          "type": "address"
        }
      ],
      "name": "enterFor",
      "outputs": [],
      "stateMutability": "nonpayable",
      "type": "function"
    },
    {
      "inputs": [
        {
          "internalType": "uint256",
          "name": "amount_",
          "type": "uint256"
        }
      ],
      "name": "exit",
      "outputs": [
        {
          "internalType": "uint256",
          "name": "exitedAmount",
          "type": "uint256"
        }
      ],
      "stateMutability": "nonpayable",
      "type": "function"
    },
    {
      "inputs": [
        {
          "internalType": "uint256",
          "name": "vestID_",
          "type": "uint256"
        }
      ],
      "name": "exitVest",
      "outputs": [],
      "stateMutability": "nonpayable",
      "type": "function"
    },
    {
      "inputs": [],
      "name": "gauge",
      "outputs": [
        {
          "internalType": "address",
          "name": "",
          "type": "address"
        }
      ],
      "stateMutability": "view",
      "type": "function"
    },
    {
      "inputs": [
        {
          "internalType": "address",
          "name": "oldLogic",
          "type": "address"
        }
      ],
      "name": "increaseRevision",
      "outputs": [],
      "stateMutability": "nonpayable",
      "type": "function"
    },
    {
      "inputs": [
        {
          "internalType": "address",
          "name": "controller_",
          "type": "address"
        },
        {
          "internalType": "address",
          "name": "myrd_",
          "type": "address"
        },
        {
          "internalType": "address",
          "name": "gauge_",
          "type": "address"
        }
      ],
      "name": "initialize",
      "outputs": [],
      "stateMutability": "nonpayable",
      "type": "function"
    },
    {
      "inputs": [
        {
          "internalType": "address",
          "name": "value_",
          "type": "address"
        }
      ],
      "name": "isController",
      "outputs": [
        {
          "internalType": "bool",
          "name": "",
          "type": "bool"
        }
      ],
      "stateMutability": "view",
      "type": "function"
    },
    {
      "inputs": [
        {
          "internalType": "address",
          "name": "value_",
          "type": "address"
        }
      ],
      "name": "isGovernance",
      "outputs": [
        {
          "internalType": "bool",
          "name": "",
          "type": "bool"
        }
      ],
      "stateMutability": "view",
      "type": "function"
    },
    {
      "inputs": [],
      "name": "lastDistributedPeriod",
      "outputs": [
        {
          "internalType": "uint256",
          "name": "",
          "type": "uint256"
        }
      ],
      "stateMutability": "view",
      "type": "function"
    },
    {
      "inputs": [],
      "name": "myrd",
      "outputs": [
        {
          "internalType": "address",
          "name": "",
          "type": "address"
        }
      ],
      "stateMutability": "view",
      "type": "function"
    },
    {
      "inputs": [],
      "name": "name",
      "outputs": [
        {
          "internalType": "string",
          "name": "",
          "type": "string"
        }
      ],
      "stateMutability": "view",
      "type": "function"
    },
    {
      "inputs": [],
      "name": "pendingRebase",
      "outputs": [
        {
          "internalType": "uint256",
          "name": "",
          "type": "uint256"
        }
      ],
      "stateMutability": "view",
      "type": "function"
    },
    {
      "inputs": [],
      "name": "previousImplementation",
      "outputs": [
        {
          "internalType": "address",
          "name": "",
          "type": "address"
        }
      ],
      "stateMutability": "view",
      "type": "function"
    },
    {
      "inputs": [],
      "name": "rebase",
      "outputs": [],
      "stateMutability": "nonpayable",
      "type": "function"
    },
    {
      "inputs": [],
      "name": "revision",
      "outputs": [
        {
          "internalType": "uint256",
          "name": "",
          "type": "uint256"
        }
      ],
      "stateMutability": "view",
      "type": "function"
    },
    {
      "inputs": [
        {
          "internalType": "address[]",
          "name": "exemptee",
          "type": "address[]"
        },
        {
          "internalType": "bool[]",
          "name": "exempt",
          "type": "bool[]"
        }
      ],
      "name": "setExemptionFrom",
      "outputs": [],
      "stateMutability": "nonpayable",
      "type": "function"
    },
    {
      "inputs": [
        {
          "internalType": "address[]",
          "name": "exemptee",
          "type": "address[]"
        },
        {
          "internalType": "bool[]",
          "name": "exempt",
          "type": "bool[]"
        }
      ],
      "name": "setExemptionTo",
      "outputs": [],
      "stateMutability": "nonpayable",
      "type": "function"
    },
    {
      "inputs": [],
      "name": "symbol",
      "outputs": [
        {
          "internalType": "string",
          "name": "",
          "type": "string"
        }
      ],
      "stateMutability": "view",
      "type": "function"
    },
    {
      "inputs": [],
      "name": "totalSupply",
      "outputs": [
        {
          "internalType": "uint256",
          "name": "",
          "type": "uint256"
        }
      ],
      "stateMutability": "view",
      "type": "function"
    },
    {
      "inputs": [
        {
          "internalType": "address",
          "name": "to",
          "type": "address"
        },
        {
          "internalType": "uint256",
          "name": "value",
          "type": "uint256"
        }
      ],
      "name": "transfer",
      "outputs": [
        {
          "internalType": "bool",
          "name": "",
          "type": "bool"
        }
      ],
      "stateMutability": "nonpayable",
      "type": "function"
    },
    {
      "inputs": [
        {
          "internalType": "address",
          "name": "from",
          "type": "address"
        },
        {
          "internalType": "address",
          "name": "to",
          "type": "address"
        },
        {
          "internalType": "uint256",
          "name": "value",
          "type": "uint256"
        }
      ],
      "name": "transferFrom",
      "outputs": [
        {
          "internalType": "bool",
          "name": "",
          "type": "bool"
        }
      ],
      "stateMutability": "nonpayable",
      "type": "function"
    },
    {
      "inputs": [
        {
          "internalType": "address",
          "name": "who",
          "type": "address"
        }
      ],
      "name": "usersTotalVests",
      "outputs": [
        {
          "internalType": "uint256",
          "name": "numOfVests",
          "type": "uint256"
        }
      ],
      "stateMutability": "view",
      "type": "function"
    },
    {
      "inputs": [
        {
          "internalType": "address",
          "name": "user",
          "type": "address"
        },
        {
          "internalType": "uint256",
          "name": "vestID",
          "type": "uint256"
        }
      ],
      "name": "vestInfo",
      "outputs": [
        {
          "internalType": "uint256",
          "name": "amount",
          "type": "uint256"
        },
        {
          "internalType": "uint256",
          "name": "start",
          "type": "uint256"
        },
        {
          "internalType": "uint256",
          "name": "maxEnd",
          "type": "uint256"
        }
      ],
      "stateMutability": "view",
      "type": "function"
    }
  ],
  "transactionHash": "0x86e09169cd0283d132cb154f20db9bc4d3b52e3b76e55b18b34df2076a0ad62a",
  "args": [],
  "numDeployments": 1,
  "solcInputHash": "f25b95755413e96c8a180219e748c24d",
  "bytecode": "0x60806040523480156200001157600080fd5b507ff0c57e16840df040f15088dc2f81fe391c3923bec73e23a9662efc9c229c6a00805468010000000000000000810460ff1615906001600160401b03166000811580156200005d5750825b90506000826001600160401b031660011480156200007a5750303b155b90508115801562000089575080155b15620000a85760405163f92ee8a960e01b815260040160405180910390fd5b84546001600160401b03191660011785558315620000d757845460ff60401b1916680100000000000000001785555b83156200011e57845460ff60401b19168555604051600181527fc7f505b2f371ae2175ee4913f4499e1f2633a7b5936321eed1cdaeb6115181d29060200160405180910390a15b505050505061264d80620001336000396000f3fe608060405234801561001057600080fd5b50600436106102315760003560e01c80637cc9638011610130578063a9059cbb116100b8578063c0c53b8b1161007c578063c0c53b8b1461046a578063dd62ed3e1461047d578063dee1f0e414610490578063f77c4791146104a3578063ffa1ad74146103d257600080fd5b8063a9059cbb14610421578063ab95605414610434578063af14052c14610447578063b429afeb1461044f578063b7f045e91461046257600080fd5b8063936725ec116100ff578063936725ec146103d257806395d89b41146103f65780639d0bcca0146103fe578063a59f3e0c14610406578063a6f19c841461041957600080fd5b80637cc96380146103a55780637f8661a1146103ad57806383923311146103c05780638f7b565b146103ca57600080fd5b80632cf53bd8116101be57806349e821931161018257806349e82193146103595780634fac6ccd14610363578063528cfa981461037657806358fa54f91461037f57806370a082311461039257600080fd5b80632cf53bd814610314578063313ce56714610327578063325a19f114610336578063353140d01461033e5780634593144c1461035157600080fd5b806311147bd61161020557806311147bd61461029f578063165b1cb4146102cd57806318160ddd146102e257806323b872dd146102f857806325d64f4b1461030b57600080fd5b8062c6a5c21461023657806306fdde031461024b57806308b4bd6314610269578063095ea7b31461027c575b600080fd5b6102496102443660046120f7565b6104ab565b005b610253610631565b6040516102609190612127565b60405180910390f35b610249610277366004612176565b6106d2565b61028f61028a36600461218f565b610837565b6040519015158152602001610260565b6102b26102ad36600461218f565b610851565b60408051938452602084019290925290820152606001610260565b6102d56108e6565b60405161026091906121bb565b6102ea6108ff565b604051908152602001610260565b61028f6103063660046121cf565b610914565b6102ea61138881565b6102ea610322366004612210565b610938565b60405160128152602001610260565b6102ea610965565b61024961034c366004612279565b61099e565b6102ea610b3b565b6102ea6212750081565b610249610371366004612210565b610b6b565b6102ea61271081565b61024961038d366004612279565b610ca2565b6102ea6103a0366004612210565b610dfd565b6102ea610e28565b6102ea6103bb366004612176565b610e58565b6102ea62ed4e0081565b6102ea610ff2565b610253604051806040016040528060058152602001640312e302e360dc1b81525081565b610253611005565b6102d5611022565b610249610414366004612176565b611052565b6102d56111a2565b61028f61042f36600461218f565b6111be565b610249610442366004612176565b6111cc565b610249611513565b61028f61045d366004612210565b611694565b6102ea6116b9565b6102496104783660046122e5565b6116cc565b6102ea61048b366004612330565b611868565b61028f61049e366004612210565b6118a4565b6102d5611929565b816000036104cc576040516371c42ac360e01b815260040160405180910390fd5b6001600160a01b0381166104f35760405163017793d360e11b815260040160405180910390fd5b6104fb6108e6565b6040516323b872dd60e01b8152336004820152306024820152604481018490526001600160a01b0391909116906323b872dd906064016020604051808303816000875af1158015610550573d6000803e3d6000fd5b505050506040513d601f19601f82011682018060405250810190610574919061236c565b5061057f8183611959565b610587611993565b6001015460405163f2c2c2c960e01b81526001600160a01b039091169063f2c2c2c9906105b89084906004016121bb565b600060405180830381600087803b1580156105d257600080fd5b505af11580156105e6573d6000803e3d6000fd5b50505050806001600160a01b03167f1fb48929215fc354244acea33112720ce5b7ba6912db70bb0149e77aa7c91ce18360405161062591815260200190565b60405180910390a25050565b6060600061063d6119b7565b905080600301805461064e90612389565b80601f016020809104026020016040519081016040528092919081815260200182805461067a90612389565b80156106c75780601f1061069c576101008083540402835291602001916106c7565b820191906000526020600020905b8154815290600101906020018083116106aa57829003601f168201915b505050505091505090565b806000036106f3576040516371c42ac360e01b815260040160405180910390fd5b6106fd33826119db565b6000610707611993565b336000908152600882016020908152604091829020805483516080810185528781524293810184905294955093909290919082019061074a9062ed4e00906123d9565b81526020908101849052825460018181018555600094855293829020835160049092020190815590820151928101929092556040810151600283015560600151600390910155610798611993565b6001015460405163f2c2c2c960e01b81526001600160a01b039091169063f2c2c2c9906107c99033906004016121bb565b600060405180830381600087803b1580156107e357600080fd5b505af11580156107f7573d6000803e3d6000fd5b50506040518581528392503391507f7d9230ebb47980ddc758fe4e69ea83a89dafbceb45bd45934798477baa5776689060200160405180910390a3505050565b600033610845818585611a11565b60019150505b92915050565b60008060008061085f611993565b6001600160a01b038716600090815260088201602052604081208054929350909187908110610890576108906123ec565b600091825260209182902060408051608081018252600490930290910180548084526001820154948401859052600282015492840183905260039091015460609093019290925290999198509650945050505050565b60006108f0611993565b546001600160a01b0316919050565b60008061090a6119b7565b6002015492915050565b600033610922858285611a23565b61092d858585611a71565b506001949350505050565b600080610943611993565b6001600160a01b03909316600090815260089093016020525050604090205490565b600061099961099560017f6f55f470bdc9cb5f04223fd822021061668e4dccb43e8727b295106dc9769c8b612402565b5490565b905090565b6109a7336118a4565b6109c457604051632d5be4cb60e21b815260040160405180910390fd5b8281146109e457604051630ef9926760e21b815260040160405180910390fd5b60006109ee611993565b9050600481018260005b81811015610b31576000868683818110610a1457610a146123ec565b9050602002016020810190610a299190612415565b610a6357610a5e898984818110610a4257610a426123ec565b9050602002016020810190610a579190612210565b8590611ad0565b610a94565b610a94898984818110610a7857610a786123ec565b9050602002016020810190610a8d9190612210565b8590611aec565b9050888883818110610aa857610aa86123ec565b9050602002016020810190610abd9190612210565b6001600160a01b03167f18d073cb9014310b21f9ea093ea01471ac5d887a48f01006fdda034febc36400888885818110610af957610af96123ec565b9050602002016020810190610b0e9190612415565b60408051911515825284151560208301520160405180910390a2506001016109f8565b5050505050505050565b600061099961099560017f812a673dfca07956350df10f8a654925f561d7a0da09bdbe79e653939a14d9f1612402565b333014610bbf5760405162461bcd60e51b815260206004820152601b60248201527f496e637265617365207265766973696f6e20666f7262696464656e000000000060448201526064015b60405180910390fd5b6000610bef61099560017f22573091f17911fb166032a3d9e0554aa73d31b7b7ddea4a4dd2995650af84bd612402565b610bfa9060016123d9565b9050610c2e81610c2b60017f22573091f17911fb166032a3d9e0554aa73d31b7b7ddea4a4dd2995650af84bd612402565b55565b610c5d82610c2b60017fbfaaa2fb63266ff27c2da975f5894955056f50419af651a81f6c5060581857e4612402565b604080518281526001600160a01b03841660208201527ff27e2ef832a4eb8ed8ec553b875eecd44764cda95b1c24170e281539e0a869c8910160405180910390a15050565b610cab336118a4565b610cc857604051632d5be4cb60e21b815260040160405180910390fd5b828114610ce857604051630ef9926760e21b815260040160405180910390fd5b6000610cf2611993565b9050600281018260005b81811015610b31576000868683818110610d1857610d186123ec565b9050602002016020810190610d2d9190612415565b610d4b57610d46898984818110610a4257610a426123ec565b610d60565b610d60898984818110610a7857610a786123ec565b9050888883818110610d7457610d746123ec565b9050602002016020810190610d899190612210565b6001600160a01b03167fc6d917984e7b6e24ee835f3758189dab37641a4a85e48dfad2b26c0495aa81eb888885818110610dc557610dc56123ec565b9050602002016020810190610dda9190612415565b60408051911515825284151560208301520160405180910390a250600101610cfc565b600080610e086119b7565b6001600160a01b0390931660009081526020939093525050604090205490565b600061099961099560017f22573091f17911fb166032a3d9e0554aa73d31b7b7ddea4a4dd2995650af84bd612402565b600081600003610e7b576040516371c42ac360e01b815260040160405180910390fd5b6000612710610e8c61138885612432565b610e969190612449565b90506000610ea48285612402565b9050610eb033856119db565b6000610eba611993565b905082816006016000828254610ed091906123d9565b9091555050805460405163a9059cbb60e01b81526001600160a01b039091169063a9059cbb90610f06903390869060040161246b565b6020604051808303816000875af1158015610f25573d6000803e3d6000fd5b505050506040513d601f19601f82011682018060405250810190610f49919061236c565b50610f52611993565b6001015460405163f2c2c2c960e01b81526001600160a01b039091169063f2c2c2c990610f839033906004016121bb565b600060405180830381600087803b158015610f9d57600080fd5b505af1158015610fb1573d6000803e3d6000fd5b50506040518481523392507fa8a63b0531e55ae709827fb089d01034e24a200ad14dc710dfa9e962005f629a915060200160405180910390a2509392505050565b6000610ffc611993565b60060154905090565b606060006110116119b7565b905080600401805461064e90612389565b600061099961099560017fbfaaa2fb63266ff27c2da975f5894955056f50419af651a81f6c5060581857e4612402565b80600003611073576040516371c42ac360e01b815260040160405180910390fd5b61107b6108e6565b6040516323b872dd60e01b8152336004820152306024820152604481018390526001600160a01b0391909116906323b872dd906064016020604051808303816000875af11580156110d0573d6000803e3d6000fd5b505050506040513d601f19601f820116820180604052508101906110f4919061236c565b506110ff3382611959565b611107611993565b6001015460405163f2c2c2c960e01b81526001600160a01b039091169063f2c2c2c9906111389033906004016121bb565b600060405180830381600087803b15801561115257600080fd5b505af1158015611166573d6000803e3d6000fd5b50506040518381523392507f1fb48929215fc354244acea33112720ce5b7ba6912db70bb0149e77aa7c91ce1915060200160405180910390a250565b60006111ac611993565b600101546001600160a01b0316919050565b600033610845818585611a71565b60006111d6611993565b336000908152600882016020526040812080549293509091849081106111fe576111fe6123ec565b906000526020600020906004020190508060000154600003611233576040516315aea4bd60e11b815260040160405180910390fd5b805460018201546000835561124b62127500826123d9565b4210156113045761125c3383611959565b611264611993565b6001015460405163f2c2c2c960e01b81526001600160a01b039091169063f2c2c2c9906112959033906004016121bb565b600060405180830381600087803b1580156112af57600080fd5b505af11580156112c3573d6000803e3d6000fd5b50506040518481528792503391507fcda231b62bdbcfdebaec108470aea3eb3fcc5ebe00d79b6e252850d4bf5c60b5906020015b60405180910390a361150c565b428360020154116113be57835460405163a9059cbb60e01b81526001600160a01b039091169063a9059cbb90611340903390869060040161246b565b6020604051808303816000875af115801561135f573d6000803e3d6000fd5b505050506040513d601f19601f82011682018060405250810190611383919061236c565b506040805183815260208101849052869133917fe9be0bf426bb2e3894d24fc546fbd06e0edcb8dd4ff9db917a0f79d2fd1d2da691016112f7565b60006127106113cf61138885612432565b6113d99190612449565b9050600061271062ed4e006113ee8542612402565b6113fc611388612710612402565b6114069088612432565b6114109190612432565b61141a9190612449565b6114249190612449565b9050600061143282846123d9565b905061143e8186612402565b87600601600082825461145191906123d9565b9091555050865460405163a9059cbb60e01b81526001600160a01b039091169063a9059cbb90611487903390859060040161246b565b6020604051808303816000875af11580156114a6573d6000803e3d6000fd5b505050506040513d601f19601f820116820180604052508101906114ca919061236c565b506040805186815260208101839052899133917fe9be0bf426bb2e3894d24fc546fbd06e0edcb8dd4ff9db917a0f79d2fd1d2da6910160405180910390a35050505b5050505050565b600061151d611993565b60018101549091506001600160a01b031633811461154e576040516304639b6160e11b815260040160405180910390fd5b6000816001600160a01b0316631ed241956040518163ffffffff1660e01b8152600401602060405180830381865afa15801561158e573d6000803e3d6000fd5b505050506040513d601f19601f820116820180604052508101906115b29190612484565b6006840154600785015491925090821180156115d057506127108110155b1561168e576007840182905560006006850155835460405163a9059cbb60e01b81526001600160a01b039091169063a9059cbb90611614908690859060040161246b565b6020604051808303816000875af1158015611633573d6000803e3d6000fd5b505050506040513d601f19601f82011682018060405250810190611657919061236c565b5060405181815233907fcf0cf43969b3f0a08a20481cfa1fd31d1023ab827f0babb8d8125862a9c403f89060200160405180910390a25b50505050565b600061169e611929565b6001600160a01b0316826001600160a01b0316149050919050565b60006116c3611993565b60070154905090565b60006116d6611b01565b805490915060ff600160401b820416159067ffffffffffffffff166000811580156116fe5750825b905060008267ffffffffffffffff16600114801561171b5750303b155b905081158015611729575080155b156117475760405163f92ee8a960e01b815260040160405180910390fd5b845467ffffffffffffffff19166001178555831561177157845460ff60401b1916600160401b1785555b61177a88611b2a565b6117c46040518060400160405280600b81526020016a3c26bcb932103a37b5b2b760a91b81525060405180604001604052806005815260200164161356549160da1b815250611b3e565b60006117ce611993565b80546001600160a01b03808b166001600160a01b0319928316178355600183018054918b169190921617905590506118096002820188611aec565b506118176004820188611aec565b50508315610b3157845460ff60401b19168555604051600181527fc7f505b2f371ae2175ee4913f4499e1f2633a7b5936321eed1cdaeb6115181d29060200160405180910390a15050505050505050565b6000806118736119b7565b6001600160a01b03948516600090815260019190910160209081526040808320959096168252939093525050205490565b6000816001600160a01b03166118b8611929565b6001600160a01b0316635aa6e6756040518163ffffffff1660e01b8152600401602060405180830381865afa1580156118f5573d6000803e3d6000fd5b505050506040513d601f19601f82011682018060405250810190611919919061249d565b6001600160a01b03161492915050565b600061099961099560017f5165972ef41194f06c5007493031d0b927c20741adcb74403b954009fd2c3618612402565b6001600160a01b03821661198357600060405163ec442f0560e01b8152600401610bb691906121bb565b61198f60008383611b50565b5050565b7ff0ecfc0ccecc6975572b37fa830af6559e5857b63ecd7cc8ae9394138d3fd70090565b7f52c63247e1f47db19d5ce0460030c497f067ca4cebf71ba98eeadabe20bace0090565b6001600160a01b038216611a05576000604051634b637e8f60e11b8152600401610bb691906121bb565b61198f82600083611b50565b611a1e8383836001611b95565b505050565b6000611a2f8484611868565b905060001981101561168e5781811015611a6257828183604051637dc7a0d960e11b8152600401610bb6939291906124ba565b61168e84848484036000611b95565b6001600160a01b038316611a9b576000604051634b637e8f60e11b8152600401610bb691906121bb565b6001600160a01b038216611ac557600060405163ec442f0560e01b8152600401610bb691906121bb565b611a1e838383611b50565b6000611ae5836001600160a01b038416611c79565b9392505050565b6000611ae5836001600160a01b038416611d6c565b6000807ff0c57e16840df040f15088dc2f81fe391c3923bec73e23a9662efc9c229c6a0061084b565b611b32611dbb565b611b3b81611de2565b50565b611b46611dbb565b61198f8282611ef5565b611b5a8383611f26565b611b8a5760405163d3b525df60e01b81526001600160a01b03808516600483015283166024820152604401610bb6565b611a1e838383611f7e565b6000611b9f6119b7565b90506001600160a01b038516611bcb57600060405163e602df0560e01b8152600401610bb691906121bb565b6001600160a01b038416611bf5576000604051634a1406b160e11b8152600401610bb691906121bb565b6001600160a01b0380861660009081526001830160209081526040808320938816835292905220839055811561150c57836001600160a01b0316856001600160a01b03167f8c5be1e5ebec7d5bd14f71427d1e84f3dd0314c0f7b2291e5b200ac8c7c3b92585604051611c6a91815260200190565b60405180910390a35050505050565b60008181526001830160205260408120548015611d62576000611c9d600183612402565b8554909150600090611cb190600190612402565b9050808214611d16576000866000018281548110611cd157611cd16123ec565b9060005260206000200154905080876000018481548110611cf457611cf46123ec565b6000918252602080832090910192909255918252600188019052604090208390555b8554869080611d2757611d276124db565b60019003818190600052602060002001600090559055856001016000868152602001908152602001600020600090556001935050505061084b565b600091505061084b565b6000818152600183016020526040812054611db35750815460018181018455600084815260208082209093018490558454848252828601909352604090209190915561084b565b50600061084b565b611dc36120a6565b611de057604051631afcd79f60e31b815260040160405180910390fd5b565b6001600160a01b038116611e2a5760405162461bcd60e51b815260206004820152600f60248201526e2d32b9379031b7b73a3937b63632b960891b6044820152606401610bb6565b611e5981610c2b60017f5165972ef41194f06c5007493031d0b927c20741adcb74403b954009fd2c3618612402565b611e8842610c2b60017f6f55f470bdc9cb5f04223fd822021061668e4dccb43e8727b295106dc9769c8b612402565b611eb743610c2b60017f812a673dfca07956350df10f8a654925f561d7a0da09bdbe79e653939a14d9f1612402565b7f1a2dd071001ebf6e03174e3df5b305795a4ad5d41d8fdb9ba41dbbe236713426814243604051611eea939291906124ba565b60405180910390a150565b611efd611dbb565b6000611f076119b7565b905060038101611f178482612557565b506004810161168e8382612557565b600080611f31611993565b90506001600160a01b0384161580611f5057506001600160a01b038316155b80611f635750611f6360028201856120c0565b80611f765750611f7660048201846120c0565b949350505050565b6000611f886119b7565b90506001600160a01b038416611fb75781816002016000828254611fac91906123d9565b909155506120169050565b6001600160a01b03841660009081526020829052604090205482811015611ff75784818460405163391434e360e21b8152600401610bb6939291906124ba565b6001600160a01b03851660009081526020839052604090209083900390555b6001600160a01b038316612034576002810180548390039055612053565b6001600160a01b03831660009081526020829052604090208054830190555b826001600160a01b0316846001600160a01b03167fddf252ad1be2c89b69c2b068fc378daa952ba7f163c4a11628f55a4df523b3ef8460405161209891815260200190565b60405180910390a350505050565b60006120b0611b01565b54600160401b900460ff16919050565b6001600160a01b03811660009081526001830160205260408120541515611ae5565b6001600160a01b0381168114611b3b57600080fd5b6000806040838503121561210a57600080fd5b82359150602083013561211c816120e2565b809150509250929050565b60006020808352835180602085015260005b8181101561215557858101830151858201604001528201612139565b506000604082860101526040601f19601f8301168501019250505092915050565b60006020828403121561218857600080fd5b5035919050565b600080604083850312156121a257600080fd5b82356121ad816120e2565b946020939093013593505050565b6001600160a01b0391909116815260200190565b6000806000606084860312156121e457600080fd5b83356121ef816120e2565b925060208401356121ff816120e2565b929592945050506040919091013590565b60006020828403121561222257600080fd5b8135611ae5816120e2565b60008083601f84011261223f57600080fd5b50813567ffffffffffffffff81111561225757600080fd5b6020830191508360208260051b850101111561227257600080fd5b9250929050565b6000806000806040858703121561228f57600080fd5b843567ffffffffffffffff808211156122a757600080fd5b6122b38883890161222d565b909650945060208701359150808211156122cc57600080fd5b506122d98782880161222d565b95989497509550505050565b6000806000606084860312156122fa57600080fd5b8335612305816120e2565b92506020840135612315816120e2565b91506040840135612325816120e2565b809150509250925092565b6000806040838503121561234357600080fd5b823561234e816120e2565b9150602083013561211c816120e2565b8015158114611b3b57600080fd5b60006020828403121561237e57600080fd5b8151611ae58161235e565b600181811c9082168061239d57607f821691505b6020821081036123bd57634e487b7160e01b600052602260045260246000fd5b50919050565b634e487b7160e01b600052601160045260246000fd5b8082018082111561084b5761084b6123c3565b634e487b7160e01b600052603260045260246000fd5b8181038181111561084b5761084b6123c3565b60006020828403121561242757600080fd5b8135611ae58161235e565b808202811582820484141761084b5761084b6123c3565b60008261246657634e487b7160e01b600052601260045260246000fd5b500490565b6001600160a01b03929092168252602082015260400190565b60006020828403121561249657600080fd5b5051919050565b6000602082840312156124af57600080fd5b8151611ae5816120e2565b6001600160a01b039390931683526020830191909152604082015260600190565b634e487b7160e01b600052603160045260246000fd5b634e487b7160e01b600052604160045260246000fd5b601f821115611a1e576000816000526020600020601f850160051c810160208610156125305750805b601f850160051c820191505b8181101561254f5782815560010161253c565b505050505050565b815167ffffffffffffffff811115612571576125716124f1565b6125858161257f8454612389565b84612507565b602080601f8311600181146125ba57600084156125a25750858301515b600019600386901b1c1916600185901b17855561254f565b600085815260208120601f198616915b828110156125e9578886015182559484019460019091019084016125ca565b50858210156126075787850151600019600388901b60f8161c191681555b5050505050600190811b0190555056fea2646970667358221220c2621f0f1984b196ec69592f7ad38ed3513a962fbf77c24e8f02c8d8d6446b7b64736f6c63430008170033",
  "devdoc": {
    "errors": {
      "ERC20InsufficientAllowance(address,uint256,uint256)": [
        {
          "details": "Indicates a failure with the `spender`s `allowance`. Used in transfers.",
          "params": {
            "allowance": "Amount of tokens a `spender` is allowed to operate with.",
            "needed": "Minimum amount required to perform a transfer.",
            "spender": "Address that may be allowed to operate on tokens without being their owner."
          }
        }
      ],
      "ERC20InsufficientBalance(address,uint256,uint256)": [
        {
          "details": "Indicates an error related to the current `balance` of a `sender`. Used in transfers.",
          "params": {
            "balance": "Current balance for the interacting account.",
            "needed": "Minimum amount required to perform a transfer.",
            "sender": "Address whose tokens are being transferred."
          }
        }
      ],
      "ERC20InvalidApprover(address)": [
        {
          "details": "Indicates a failure with the `approver` of a token to be approved. Used in approvals.",
          "params": {
            "approver": "Address initiating an approval operation."
          }
        }
      ],
      "ERC20InvalidReceiver(address)": [
        {
          "details": "Indicates a failure with the token `receiver`. Used in transfers.",
          "params": {
            "receiver": "Address to which tokens are being transferred."
          }
        }
      ],
      "ERC20InvalidSender(address)": [
        {
          "details": "Indicates a failure with the token `sender`. Used in transfers.",
          "params": {
            "sender": "Address whose tokens are being transferred."
          }
        }
      ],
      "ERC20InvalidSpender(address)": [
        {
          "details": "Indicates a failure with the `spender` to be approved. Used in approvals.",
          "params": {
            "spender": "Address that may be allowed to operate on tokens without being their owner."
          }
        }
      ],
      "InvalidInitialization()": [
        {
          "details": "The contract is already initialized."
        }
      ],
      "NotInitializing()": [
        {
          "details": "The contract is not initializing."
        }
      ]
    },
    "events": {
      "Approval(address,address,uint256)": {
        "details": "Emitted when the allowance of a `spender` for an `owner` is set by a call to {approve}. `value` is the new allowance."
      },
      "Initialized(uint64)": {
        "details": "Triggered when the contract has been initialized or reinitialized."
      },
      "Transfer(address,address,uint256)": {
        "details": "Emitted when `value` tokens are moved from one account (`from`) to another (`to`). Note that `value` may be zero."
      }
    },
    "kind": "dev",
    "methods": {
      "allowance(address,address)": {
        "details": "See {IERC20-allowance}."
      },
      "approve(address,uint256)": {
        "details": "See {IERC20-approve}. NOTE: If `value` is the maximum `uint256`, the allowance is not updated on `transferFrom`. This is semantically equivalent to an infinite approval. Requirements: - `spender` cannot be the zero address."
      },
      "balanceOf(address)": {
        "details": "See {IERC20-balanceOf}."
      },
      "createVest(uint256)": {
        "details": "Vesting xMyrd --> Myrd functionality"
      },
      "created()": {
        "returns": {
          "_0": "Creation timestamp"
        }
      },
      "createdBlock()": {
        "returns": {
          "_0": "Creation block number"
        }
      },
      "decimals()": {
        "details": "Returns the number of decimals used to get its user representation. For example, if `decimals` equals `2`, a balance of `505` tokens should be displayed to a user as `5.05` (`505 / 10 ** 2`). Tokens usually opt for a value of 18, imitating the relationship between Ether and Wei. This is the default value returned by this function, unless it's overridden. NOTE: This information is only used for _display_ purposes: it in no way affects any of the arithmetic of the contract, including {IERC20-balanceOf} and {IERC20-transfer}."
      },
      "enter(uint256)": {
        "details": "Mints xMyrd for each Myrd"
      },
      "enterFor(uint256,address)": {
        "details": "Mints xMyrd for each Myrd and put the xMyrd on balance of the given recipient"
      },
      "exit(uint256)": {
        "details": "Exit instantly with a penalty",
        "params": {
          "amount_": "Amount of xMyrd to exit"
        }
      },
      "exitVest(uint256)": {
        "details": "Handles all situations regarding exiting vests"
      },
      "increaseRevision(address)": {
        "details": "Revision should be increased on each contract upgrade"
      },
      "isController(address)": {
        "details": "Return true if given address is controller"
      },
      "name()": {
        "details": "Returns the name of the token."
      },
      "previousImplementation()": {
        "details": "Previous logic implementation"
      },
      "revision()": {
        "details": "Contract upgrade counter"
      },
      "symbol()": {
        "details": "Returns the symbol of the token, usually a shorter version of the name."
      },
      "totalSupply()": {
        "details": "See {IERC20-totalSupply}."
      },
      "transfer(address,uint256)": {
        "details": "See {IERC20-transfer}. Requirements: - `to` cannot be the zero address. - the caller must have a balance of at least `value`."
      },
      "transferFrom(address,address,uint256)": {
        "details": "See {IERC20-transferFrom}. Skips emitting an {Approval} event indicating an allowance update. This is not required by the ERC. See {xref-ERC20-_approve-address-address-uint256-bool-}[_approve]. NOTE: Does not update the allowance if the current allowance is the maximum `uint256`. Requirements: - `from` and `to` cannot be the zero address. - `from` must have a balance of at least `value`. - the caller must have allowance for ``from``'s tokens of at least `value`."
      }
    },
    "title": "xMyrd token Inspired by XSTBL from Stability codebase",
    "version": 1
  },
  "userdoc": {
    "kind": "user",
    "methods": {
      "BASIS()": {
        "notice": "Denominator"
      },
      "CONTROLLABLE_VERSION()": {
        "notice": "Version of the contract"
      },
      "MAX_VEST()": {
        "notice": "The maximum vesting length"
      },
      "MIN_VEST()": {
        "notice": "The minimum vesting length"
      },
      "SLASHING_PENALTY()": {
        "notice": "Max slashing amount"
      },
      "controller()": {
        "notice": "Return controller address saved in the contract slot"
      },
      "created()": {
        "notice": "Return creation timestamp"
      },
      "createdBlock()": {
        "notice": "Return creation block number"
      },
      "gauge()": {
        "notice": "Gauge address"
      },
      "isGovernance(address)": {
        "notice": "Return true if given address is setup as governance in Controller"
      },
      "lastDistributedPeriod()": {
        "notice": "The last period rebases were distributed"
      },
      "myrd()": {
        "notice": "Myrd address"
      },
      "pendingRebase()": {
        "notice": "Amount of pvp rebase penalties accumulated pending to be distributed"
      },
      "rebase()": {
        "notice": "Function called by the gauge to send the rebases once a week"
      },
      "setExemptionFrom(address[],bool[])": {
        "notice": "Set exemption status for from address"
      },
      "setExemptionTo(address[],bool[])": {
        "notice": "Set exemption status for to address"
      },
      "usersTotalVests(address)": {
        "notice": "Returns the total number of individual vests the user has"
      },
      "vestInfo(address,uint256)": {
        "notice": "returns info on a user's vests"
      }
    },
    "version": 1
  },
  "storageLayout": {
    "storage": [],
    "types": null
  }
}